:020000040800F2
:10000000000002203D0600084D04000851040008CD
:1000100055040008590400085D04000800000000B1
:100020000000000000000000000000006104000863
:100030006504000800000000690400086D04000861
:100040003906000839060008390600083906000894
:10005000390600083906000871050008390600084D
:100060003906000839060008390600083906000874
:100070003906000839060008390600083906000864
:10008000690500086D0500083906000839060008F2
:100090003906000839060008390600083906000844
:1000A0003906000839060008390600083906000834
:1000B0003906000839060008390600083906000824
:1000C0003906000839060008390600083906000814
:1000D0003906000839060008B1050008390600088D
:1000E00039060008390600083906000839060008F4
:1000F00039060008390600083906000839060008E4
:1001000039060008350600083906000839060008D7
:1001100039060008390600083906000839060008C3
:1001200039060008390600083906000839060008B3
:1001300039060008390600083906000839060008A3
:100140003906000839060008390600083906000893
:100150003906000839060008390600083906000883
:100160003906000839060008390600083906000873
:100170003906000839060008390600083906000863
:080180003906000839060008E9
:10018800344B35481A68002142F001021A60996020
:100198001A6822F0847222F480321A6058601A6851
:1001A80082B022F480221A60D960009101911A6805
:1001B80042F480321A6003E0009AB2F5A04F09D0E9
:1001C8001A6802F400320192009A01320092019AF0
:1001D800002AF1D01F4B1B6813F4003318BF01230A
:1001E8000193019B012B05D01C4B4FF000629A60D4
:1001F80002B07047174B1A491A6C1A4842F08052DD
:100208001A640A6842F440420A609A689A609A68D6
:1002180042F400429A609A6842F4A0529A60586088
:100228001A6842F080721A601A689201FCD50E4A68
:10023800084940F2057010609A6822F003029A603B
:100248009A6842F002029A608B6803F00C03082B4C
:10025800FAD1C9E7003802401030002400ED00E070
:1002680000700040042A4007003C0240154A936889
:1002780003F00C03042B0BD0082B0BD0124B114AA4
:1002880012499268C2F303128A5CD3400B6170472B
:100298000F4BF4E75068516852684302C2F3881262
:1002A80001F03F014CBF0A4B074BB3FBF1F303FBD3
:1002B80002F3044A5268C2F3014201325200B3FB0E
:1002C800F2F3DCE7003802400024F40000000020CC
:1002D80000127A0010B5044600F088FF2043C0B22F
:1002E800003018BF012010BD08B500F01DFC012822
:1002F80014BF0220002008BD2DE9F043ADF5017DB3
:1003080080460D461446994600F00EFC01283DD162
:10031800AB0720D009F1FF37FFB2B9F1000F14D0B5
:10032800013705EB47272246694601234046FFF778
:10033800E3FF013406464FF40072694630B9284697
:10034800154405F011F9BD42EDD1002630460DF5F2
:10035800017DBDE8F08306464B46214628464FF40A
:10036800007201F0ADF80028F0D101F0F3FA04466C
:1003780001F084FC0128FBD00228E7D0261C18BF16
:10038800012630460DF5017DBDE8F0830326304691
:100398000DF5017DBDE8F0832DE9F043ADF5017D54
:1003A80080460D461446994600F0BEFB01283ED112
:1003B800AB0721D009F1FF37FFB2B9F1000F15D013
:1003C800013705EB472729464FF40072684605F0C8
:1003D800CBF82246012369464046FFF7DDFF05F5C5
:1003E80000750646013410B9BD42ECD100263046EE
:1003F8000DF5017DBDE8F08306464B4621462846AB
:100408004FF4007201F0F8F90028F0D101F0F8FA81
:10041800044601F033FC0128FBD00228E7D0261C53
:1004280018BF012630460DF5017DBDE8F08303268F
:1004380030460DF5017DBDE8F08300BF0020704710
:1004480000207047704700BFFEE700BFFEE700BF0F
:10045800FEE700BFFEE700BF704700BF704700BF60
:10046800704700BF704700BF002240B10346013B00
:1004780000BF002BFBD101329042F7D17047704783
:10048800F0B5012187B0082004F0BCF94FF47042A0
:1004980040F2013302A92E482E4C2F4FCDE90223FA
:1004A80004F0C4FC0121084604F0ACF901214FF422
:1004B800003004F0CBF901214FF4001004F0A2F948
:1004C80001214FF4804004F0CDF901254FF00223BB
:1004D80002A92046CDE90253042604F0A7FC02A98C
:1004E8002046CDE9026704F0A1FC2046072202213C
:1004F80004F026FD082302A92046CDE9023704F0BE
:1005080095FC07222046032104F01AFD0021084625
:1005180004F044FD4FF4006304A8ADF814300495CA
:100528008DF8165004F06EFA0C4B01930DEB060093
:1005380003F0DAFD45F2555004F08CFF304604F024
:100548008FFF40F6FF7004F091FF07B0F0BD00BFC9
:10055800000C0240000002400202000206010101F4
:1005680001F044BE01F002BE08B5012004F0A2FA71
:1005780000B908BD4FF40041084804F0DDFC012132
:10058800074803F0CBFE07480122802104F008FF4A
:100598000120BDE8084004F08FBA00BF000C0240FB
:1005A800A06002400044004008B520211C4804F027
:1005B8001DFF012807D040F22661194804F020FFEA
:1005C800012821D008BD02464021154804F0E8FE64
:1005D8004FF48041134804F0AFFC0022402110483A
:1005E80004F0DEFE01F008FD01460F4801F0CEFCE4
:1005F80040F225510A4804F025FF40F226610848D8
:1006080004F0FEFE0128DDD14FF40041054804F056
:1006180093FC40F226610248BDE8084004F012BF8E
:1006280000440040000C0240A060024001F034BCCD
:10063800FEE700BF684620F007018D46144A1549B9
:100648008A4201B50CD20139891A21F00301124BF3
:100658000431194453F8040B42F8040B8B42F9D1C6
:100668000E4B0F4A93420AD2013AD21A22F00302E1
:1006780004321A44002143F8041B9342FBD1FFF7CC
:100688007FFD04F013FFBDE801408546704700BFB9
:1006980000000020380000205C56000838000020C8
:1006A800F408002010B50D4B5C6B14F0450FFBD01F
:1006B80063070DD414F0010405D140F2FF5004F093
:1006C800F9FA204610BD012004F0F4FA012010BD0B
:1006D800042004F0EFFA032010BD00BF002C0140F5
:1006E80030B5544A544B126883B0120404460D20A6
:1006F8004FF480611A605860002240251846009225
:10070800DA6001929D60196104F01EFA4B4A536B3E
:100718000193019B13F0450FF9D0019B590760D451
:10072800019D15F0010556D104F02CFA0190019BAA
:100738000D2B02D0102003B030BD40F2FF5004F062
:10074800B9FA284604F024FA0090009B3C48009A25
:10075800C3F34323104023700028ECD0009B002BE8
:1007680049DB009B5A0044D4009B9B0045D4009B66
:10077800DD0044D4009B1C0143D4009B590136D4AE
:10078800009BDA013FD4009B1B023ED4009B5D0214
:10079800D0D4009B9C023AD4009BD90239D4009B48
:1007A8001A0338D4009B5B0337D4009B9D0338D4CD
:1007B800009BDC0333D4009B190438D4009B5A04F3
:1007C80033D4009B9B042ED4009B13F0080F0CBF5E
:1007D80000201A20AFE7012004F06CFA012003B0D2
:1007E80030BD042004F066FA032003B030BD0D20AC
:1007F800A1E709209FE71C209DE70A209BE70B2023
:1008080099E70C2097E70E2095E70F2093E7112032
:1008180091E712208FE713208DE714208BE716202D
:1008280089E7152087E7192085E7182083E717202F
:1008380081E700BF38000020C0050020002C0140DF
:1008480008E0FFFD3C4A38B5546B14F0450F0546E7
:1008580003D1546B14F0450FFBD0610744D414F056
:1008680001043AD104F08EF9A84201D0102038BD15
:1008780040F2FF5004F01EFA204604F089F92F4B8D
:100888000340002B2ED0002837DB420033D48300EE
:1008980035D4C50035D4040135D4410129D4C20169
:1008A80033D4030233D44502E0D4840231D4C102E4
:1008B80031D4020331D4430331D4850333D4C40380
:1008C8002FD4010435D4420431D483042DD410F03C
:1008D800080F0CBF00201A2038BD012004F0EAF9E7
:1008E800012038BD184638BD042004F0E3F9032080
:1008F80038BD0D2038BD092038BD1C2038BD0A2060
:1009080038BD0B2038BD0C2038BD0E2038BD0F2057
:1009180038BD112038BD122038BD132038BD142031
:1009280038BD162038BD152038BD192038BD18200F
:1009380038BD172038BD00BF002C014008E0FFFD7E
:100948002DE9F047804682B0002004F021F910F02C
:10095800007340F09D806F4C009320464FF01009C3
:10096800082740264FF480650193E360C4E90079C5
:10097800A660256104F0E8F84846FFF763FF10B168
:1009880002B0BDE8F087DFF89891E060D9F8002060
:10099800A66012044FF0370A2046C4E9002A2561F0
:1009A80004F0D2F85046FFF74DFF82460028E7D101
:1009B800594B4FF0FF313022186119609A600221BB
:1009C800012218465F60D9605A61332704F0ECF8B9
:1009D8002046C4F800A0C4E9026A2561676004F0F3
:1009E800B3F83846FFF72EFF0028C9D16F464B4EA3
:1009F80040F22A6503E004F053F900284CD1736BE8
:100A08002B424FF40010F6D0082004F049F90028D2
:100A180070D1022004F044F9002870D1202004F09D
:100A28003FF900283DD14FF4007004F039F905462C
:100A3800002869D140F2FF5004F03CF9009BB8F15E
:100A4800010F1BBA36D0DB0330D5D9F80030314856
:100A5800E5601B04372540274FF48066C4E900355C
:100A6800A760266104F070F82846FFF7EBFE0346FE
:100A7800002885D1C4E9027326482360062526612B
:100A8800656004F061F8284602B0BDE8F047D9E691
:100A98000E2002B0BDE8F08704F0ACF847F8040B6C
:100AA800ADE7202004F006F9062069E7252002B00A
:100AB800BDE8F0875A03F9D5D9F800301548E56044
:100AC8001B04372540274FF48066C4E90035A7602A
:100AD800266104F039F82846FFF7B4FE03460028DB
:100AE8007FF44EAF02220625A7600A482260C4E9B7
:100AF8000336C5E7082004F0DDF8042040E70220AB
:100B080004F0D8F802203BE74FF4007004F0D2F864
:100B1800072035E7C005002048060020002C0140CA
:100B28003800002003F09CB900B583B001230421EC
:100B380006488DF8073004F0DFF910B100238DF86E
:100B480007309DF8070003B05DF804FB0008024079
:100B58002DE9F047804B814C82B00025762218465B
:100B68001A751D60C3E90155C3E903558DF807508F
:100B780003F0B6FF032003F0D9FF012003F0D0FFF4
:100B88004FF480632046C4E90055C4E90255236147
:100B98004FF4803503F0D8FF02E0013D00F0C78034
:100BA800802004F07DF80028F7D040F2FF5004F0D0
:100BB80081F800238DF807309DF8073003F0FF0512
:100BC8002BB19DF80700C0B202B0BDE8F0874FF422
:100BD800D570082140224FF4806320605F48E560AB
:100BE800C4E90112236103F0AFFF5D494A6B12F0BB
:100BF800450F0ED14FF4803302E0002B00F09980AE
:100C08004A6B12F0450F03F1FF33F6D0002B00F0CA
:100C18009080500700F18D80510600F198808DF882
:100C280007509DF80730002B6DD14E4B01225A60BA
:100C38004FF080480023372540214FF48062474811
:100C48002360E360C4E90151226103F07DFF284677
:100C5800FFF7F8FD8DF807009DF8073003F0FF0552
:100C6800002BAED148F000483C4F48F480180023D0
:100C7800372638464FF0400A4FF480692360E36016
:100C8800C4E9016AC4F8109003F05EFF3046FFF72C
:100C9800D9FD8DF807009DF8073003F0FF06002BFB
:100CA8008FD129233846C4F80080C4E902A6C4F8C5
:100CB8001090636003F048FF294A536B13F0450F07
:100CC800FBD05A071AD440F2FF5003F0F3FF8DF817
:100CD80007609DF8073003F0FF00002B7FF471AF29
:100CE80003F056FF002805F101054FF6FF7325DBD9
:100CF8009D42BCD11B238DF8073062E7042003F026
:100D0800D9FF0326E3E7002640224FF48063372506
:100D180012482361C4E901522660E66003F014FF1B
:100D28002846FFF78FFDB0468DF8070082E70323BA
:100D380040E7042003F0BEFF032570E79D42D9D0A9
:100D480043007FF53EAF074B02225A6039E7402047
:100D580003F0B0FF63E700BF30060020C0050020A5
:100D6800002C01403800002008B5002003F0DEFE0A
:100D7800002008BDF8B503F0DFFE00284BD04E4E2A
:100D88007368042B02D100273846F8BD4B4C022368
:100D9800C0214FF48062204663600023A160226175
:100DA8002360E36003F0D0FEFFF77CFC07460028D1
:100DB800EAD103F0EDFEB060042003F0E9FEF06034
:100DC800082003F0E5FE30610C2003F0E1FE7368B3
:100DD8007061022B01D9062B33D100230321402255
:100DE8002360E360354861604FF480632361A2604B
:100DF80003F0AAFE324B5D6B15F0450FFBD0680778
:100E08004DD415F0010544D103F0BCFE032805D0EC
:100E180010273846F8BD25273846F8BD40F2FF5060
:100E280003F048FF284603F0B3FE10F4604F3BD0B0
:100E380081043CD44204EBD403043AD473680120FF
:100E480000E00120042B9FD00304C0210022306061
:100E580023601A484FF480630925C4E9021223610C
:100E6800656003F071FEFFF71DFC074600288BD173
:100E780003F08EFEB061042003F08AFEF0610820C2
:100E880003F086FE30620C2003F082FE7062384662
:100E9800F8BD0120012703F00DFF3846F8BD0420F6
:100EA80003F008FF03276FE7000C7368CAE71327EE
:100EB8006AE70F2768E700BF38000020C005002058
:100EC800002C01409F492DE9F043D1E90624150E75
:100ED8000346E8B287091F70C5F3830500F00300D5
:100EE800270E5D703F019870C2F30745C2F30720D3
:100EF800D2B2DD7018715A71DF80DF884E6883F8CE
:100F08005660200AC4F3074247EA1217C5B202F036
:100F18000F02DF801A72EF09C0F380125F729A72B3
:100F2800C0F34017C0F30012DF72012E1A730F6866
:100F3800A3F854704FF000025A730A6A40F2C28054
:100F4800022E00F0A580680000F07E00C5F3801531
:100F58005D764C6A98769F7E8E68200ED2B247EAFC
:100F6800D217850002F07F029F7605F00C05DA762D
:100F7800C709C0F34112C0F382001F775A779877E8
:100F8800DD7793F81FE0220A250CE8B2C5F3401C70
:100F9800D5B24EEA901E00F00107C4F346080020BF
:100FA800EC0983F81FE083F820C083F8210083F858
:100FB800227083F82340C2F3801483F82440C2F3DC
:100FC800401483F82540C6F3074CC2F30014C2F35B
:100FD800810283F826404FEA0C2C83F8272001244D
:100FE800320E05F0030583F8285083F8298083F82A
:100FF8002A4083F82C20A3F82EC0DA8DCD68C6F3DA
:10100800072717433606DF851E631A6B2E0E42EA42
:1010180006421A631F6B2E0A06F47F463E431E6380
:10102800D1E904211E6BC5F307273743160C1F634C
:10103800EDB2170E360683F8345083F835709E6388
:101048009E6B150205F47F0535439D639D6B120267
:1010580092B22A439A639A6B42EA11629A6393F8AE
:101068003C500A0CC2F303161202354302F47062B4
:1010780083F83C50DA87DD8FC1F307222A43C1F396
:101088004601DA8783F8401083F84140BDE8F083D1
:10109800240404F47C141C611869140E40EA04202A
:1010A80018611C69C2F307402043186118690130B0
:1010B800450B4FF40074C004C3E912051C65C2F364
:1010C800072540E7800200F4406018611869A40011
:1010D80004F47F7404431C611F69100C140EE5B2FC
:1010E800460047EA9517C4F3C20405F00705C0F3A4
:1010F800421C06F00606C0F382001F611C755D7570
:1011080083F816C0D8751E76187EC2F3072540EA04
:10111800D51018761C691E7E1F7A0120023600FA47
:1011280006F6B8404FEAE6790134A6FB006700FBF3
:101138000977A6FB048904FB07991865C3E9128996
:1011480001E700BF3800002038B51B4B5B68032B54
:101158001CD0022B17D8B0F5805F17D0B0F5006F00
:10116800054616D00020FFF7EBFB044660B9134B89
:1011780002221846C3E90044C3E902441C611A75F7
:1011880003F0AEFC00E00024204638BD27242046AA
:1011980038BD0120FFF7D4FB04460028F4D1074BE3
:1011A80002221846C3E90044C3E902451C611A75C6
:1011B80003F096FCE8E700BF380000203006002066
:1011C80038B5094B072418604025184600214FF40C
:1011D8008062C3E902511A615C6003F0B5FC2046E5
:1011E800BDE83840FFF72EBBC005002010B582B01F
:1011F80000238DF8073002F081FE03F063FCFFF74F
:10120800A7FC8DF807009DF8073023B19DF807006B
:10121800C0B202B010BDFFF7ADFD8DF807009DF814
:10122800073003F0FF02002BF0D1134B134C1A6068
:1012380018467621C3E90122C3E90322197503F090
:101248004FFC2046FFF73EFE8DF807009DF807305B
:1012580053B19DF80730002BD8D14FF40060FFF749
:1012680073FF8DF80700D1E7B4F854000004FFF7C6
:10127800A7FF8DF80700ECE730060020D80500200E
:101288002DE9F84F514C524D6668002384F82830F8
:10129800E36223634F4CEB62022E14BF15464FF4F2
:1012A80000754FF000034FF0100607464FF0400A54
:1012B80020464FF480698846E36008BF4FEA51280A
:1012C800C4E9016A2560C4F8109003F03DFC30467B
:1012D800FFF7B8FA8346064610B13046BDE8F88FE6
:1012E8003D4B4FF0FF319022186119609A6002213E
:1012F800012218465D60D9605A61112503F054FC3B
:101308002046C4F80080C4E902ABC4F810906560B8
:1013180003F01AFC2846FFF795FA06460028DCD1A8
:101328002B4E1C3740F22A65A7F11C0802E003F097
:10133800B7FC60BB736B2B424FF40040F7D008201A
:1013480003F0AEFC90BB022003F0AAFC48BB2020AF
:1013580003F0A6FC78BB4FF4007003F0A1FC4FF03B
:10136800FF34064630B12BE054B103F043FC48F893
:10137800040B013C4FF4001003F092FC0028F3D159
:1013880040F2FF5003F096FC3046BDE8F88FA7F115
:10139800200403F02FFC44F8040FA742F9D12037AA
:1013A800C2E7022003F086FC022696E7082003F035
:1013B80081FC042691E7202003F07CFC06268CE7BC
:1013C8004FF4007003F076FC072686E7380000200B
:1013D800002C0140C0050020480600202DE9F04FF0
:1013E800334CDFF8D8C0666800254FF0010E84F84A
:1013F8002850E562C4F830E02E4CCCF82C50022E70
:1014080014BF15464FF400754FF0100B83B080469B
:10141800994620464FF000034FF0400A4FF480668B
:101428000F46E36008BF4F0AC4E901BA2560266188
:1014380003F08AFB5846FFF705FA834618B1584669
:1014480003B0BDE8F08F1C4B05FB09F215464FF0C1
:10145800FF30902202215D60186001951846012531
:10146800C3F810B09A60D9605D614FF0120903F0BB
:101478009BFB2046C4E902AB27602661C4F80490B0
:1014880003F062FB4846FFF7DDF983460028D6D112
:10149800294640F22A3003F0F7FB284603F0EEFB1A
:1014A8004046019902F0CEFD584603B0BDE8F08FE2
:1014B80038000020C005002048060020002C01400C
:1014C8002DE9F04F354CDFF8E0E0D4F804C00025F2
:1014D8004FF0010A84F82850E562C4F830A0304C77
:1014E800CEF82C50BCF1020F18BF16460F4608BFA5
:1014F8004FF400764FF0100583B081469846204699
:101508004FF000034FF0400B4FF4806A18BF774349
:10151800E360C4E9015B2660C4F810A003F014FB83
:101528002846FFF78FF9054618B1284603B0BDE8ED
:10153800F08F1C4B08FB06F216464FF0FF30902246
:1015480002215E6018600196184601261D619A60A6
:10155800D9605E614FF0120803F026FB2046C4E90B
:1015680002B52760C4F810A0C4F8048003F0ECFAB0
:101578004046FFF767F905460028D6D1314640F2C4
:101588002A3003F081FB304603F078FB4846019986
:1015980002F058FD284603B0BDE8F08F380000205F
:1015A800C005002048060020002C01402DE9F04726
:1015B800474C484E6568002384F82830E36223636B
:1015C800454CF362022D4FF0000314BF16464FF44A
:1015D80000764FF0100507464FF0400A20464FF4BA
:1015E80080688946E36008BF4FEA51292660C4E94C
:1015F800015AC4F8108003F0A7FA2846FFF722F929
:10160800034608B1BDE8F08718252046C4E902A3BF
:10161800C4F80090C4F81080656003F095FA284675
:10162800FFF710F903460028ECD12C4A294D5660E3
:101638004FF0FF309021C2E9033398461060012330
:1016480010469160536140F21A6403F0ADFA04E069
:101658004FF4804003F024FBD0B96B6B2342F7D0E2
:10166800082003F01DFB20BB022003F019FB28BB58
:10167800102003F015FB30BB4FF4007003F010FB93
:101688000028BFD04FF4007003F014FB0720B9E71F
:10169800C8F500731F2BE0D93E1F07F11C0956F847
:1016A800040F03F0ADFA4E45F9D1203708F12008B0
:1016B800D3E7082003F0FEFA0420A3E7022003F092
:1016C800F9FA02209EE7102003F0F4FA052099E7C2
:1016D80038000020002C0140C005002048060020EA
:1016E8002DE9F04F404D414E83B00027012485F885
:1016F80028700090EF622C63F76299466B683C4C47
:10170800022B14BF16464FF400764FF00002204615
:101718004FF0100A4FF0400B4FF480678846E260A4
:1017280008BF4FEA51282660C4E901AB276103F0DE
:101738000BFA5046FFF786F8034618B1184603B06F
:10174800BDE8F08F2A68C4F808B002FA0AF2372513
:101758002046C4E903372260656003F0F5F928469E
:10176800FFF770F803460028E8D117252046C4E99A
:1017780002B3C4F800902761656003F0E5F92846D4
:10178800FFF760F803460028D8D119252046C4E998
:1017980002B3C4F800802761656003F0D5F92846D4
:1017A800FFF750F803460028C8D1124A01934FF0BA
:1017B800FF34104614609021012406FB09F6C2E9A3
:1017C800033391605660546103F0EEF9214640F20C
:1017D8002A3003F059FA204603F050FA31460098AF
:1017E80002F0E6FB019BA9E738000020002C01402D
:1017F800C0050020480600202DE9F04F414D424C1D
:1018080083B000274FF0010E85F828700090EF6232
:10181800C5F830E0E76299466B683C4C022B14BF70
:1018280016464FF400764FF0000220464FF0100A9B
:101838004FF0400B4FF480678846E26018BF06FB04
:1018480001F82660C4E901AB276103F07DF9504631
:10185800FEF7F8FF034618B1184603B0BDE8F08F4D
:101868002A68C4F808B002FA0AF237252046C4E903
:1018780003372260656003F067F92846FEF7E2FF48
:1018880003460028E8D117252046C4E902B3C4F866
:1018980000902761656003F057F92846FEF7D2FFEC
:1018A80003460028D8D119252046C4E902B3C4F854
:1018B80000802761656003F047F92846FEF7C2FFFC
:1018C80003460028C8D1124A01934FF0FF3410464E
:1018D80014609021012409FB06F6C2E903339160E4
:1018E8005660546103F060F9214640F22A3003F053
:1018F800CBF9204603F0C2F93146009802F058FBB4
:10190800019BA9E738000020002C0140C0050020F9
:1019180048060020034B5B6B13F4405F14BF0120A3
:1019280000207047002C014038B5094B00221846AA
:101938000C2440254FF480619D6019611A60DA60BB
:101948005C6003F001F92046BDE83840FEF77ABF35
:10195800C005002070B5284E736B8BB9F36A7BB94C
:1019680096F8283063B94FF0FF3306E0F26A3AB9C7
:1019780096F8282022B9013B02D0726B002AF5D0D4
:1019880000221E4B7263586B10F4005027D04FF0A2
:10199800FF3500E0B5B1586B10F4005005F1FF3584
:1019A800F8D1336B012B12D07DB1044640F2FF50C1
:1019B80003F080F996F8283013B196F82800C4B2DD
:1019C800204670BD336B012B10D00424EEE7FFF7DF
:1019D800ABFF0446002DE9D1002CE7D1F5E7336BC6
:1019E800012BE2D1FFF7A0FF0446DFE7FFF79CFFDA
:1019F8000446002CDAD1E8E738000020002C01402A
:101A080070B5284E736B8BB9F36A7BB996F828309A
:101A180063B94FF0FF3306E0F26A3AB996F8282026
:101A280022B9013B02D0726B002AF5D000221E4B6E
:101A38007263586B10F4805027D04FF0FF3500E0E8
:101A4800B5B1586B10F4805005F1FF35F8D1336B00
:101A5800012B12D07DB1044640F2FF5003F02AF961
:101A680096F8283013B196F82800C4B2204670BD05
:101A7800336B012B10D00424EEE7FFF755FF044623
:101A8800002DE9D1002CE7D1F5E7336B012BE2D12A
:101A9800FFF74AFF0446DFE7FFF746FF0446002C3E
:101AA800DAD1E8E738000020002C01402DE9F043A6
:101AB800494DEB6983B000229B0101928DF8032008
:101AC80051D5464B5B680746DBB210460E460233DB
:101AD8004349B1FBF3F3019303F05AF810F0007493
:101AE80070D16B68022B43D044D93E4D3D4800234A
:101AF800402226262B60EB604FF480632B61C5E9FA
:101B0800016203F021F83046FEF79CFE034630BB25
:101B1800019B1BB1019B0134A342FBD80DF10300CB
:101B2800FEF7DEFD002854D19DF80330063B012B5B
:101B38004DD80DF10300FEF7D3FD6FF00104034605
:101B480009E09DF80330063B012B40D8FEF7C8FD9D
:101B5800013C034603D00DF10300002BF1D01846D9
:101B680003B0BDE8F0832523184603B0BDE8F08331
:101B78007F0A760A1B4D002328464FF020082F6065
:101B88004FF040094FF48067EB60C5E901892F6188
:101B980002F0DAFF4046FEF755FE03460028DED184
:101BA8004FF021082846C5E902932E602F61C5F839
:101BB800048002F0C9FF4046FEF744FE03460028B1
:101BC80094D0CCE70E23184603B0BDE8F083002379
:101BD800C5E70346C3E700BF38000020002C0140DA
:101BE800C0D40100C005002070B5E8B1104A114BFF
:101BF8001268402512044FF480619D6004460D254B
:101C0800184600265D601A60C3E9036102F09CFF74
:101C18002846FEF717FE054608B1284670BD02F0B3
:101C2800B7FF2060284670BD2625284670BD00BF36
:101C380038000020C005002010B582B00024012320
:101C480004210D4801948DF8033003F055F908B1CB
:101C58008DF803409DF80330012B02D0FF2002B01D
:101C680010BD01A8FFF7C0FF0028F7D10198C0F305
:101C7800432002B010BD00BF0008024008B5FFF7BE
:101C8800DBFF042804D0FF280CBF0220012008BD78
:101C9800002008BD2DE9F8430746002002F078FF30
:101CA80010F000737FD1514C1025402620464FF488
:101CB8008068E360C4E901562660C4F8108002F029
:101CC80043FF2846FEF7BEFD054610B12846BDE88D
:101CD800F883474BE0601B68A6601B043725204645
:101CE800C4E90035C4F8108002F02EFF2846FEF73C
:101CF800A9FD814605460028E8D13E4B4FF0FF314B
:101D08006022186119609A600221012218465E60FB
:101D1800D9605A610D2502F047FF20466560C4F876
:101D28000090C4E90269C4F8108002F00DFF28464B
:101D3800FEF788FD05460028C8D107F11C042E4F80
:101D480040F22A66A4F11C0802E002F0A9FF70BB69
:101D58007B6B33424FF40040F7D0082002F0A0FF1D
:101D6800A0BB022002F09CFFA8BB202002F098FF35
:101D780038BB4FF4007002F093FF4FF0FF34054674
:101D880030B12DE054B102F035FF48F8040B013CA6
:101D98004FF4001002F084FF0028F3D140F2FF5006
:101DA80002F088FF92E70E252846BDE8F883A4F1E3
:101DB800200502F01FFF45F8040FAC42F9D120348A
:101DC800C0E7202002F076FF06257FE7082002F012
:101DD80071FF04257AE7022002F06CFF022575E7FF
:101DE8004FF4007002F066FF07256FE7C00500207A
:101DF8003800002048060020002C014038B5254D49
:101E0800044605F13800FFF745FF002840D195F852
:101E180038309B09237095F83830C3F3401363704A
:101E280095F83A301B026380628895F83B3013437B
:101E3800638095F83C301B066360636895F83D2025
:101E480043EA02436360636895F83E2043EA02234D
:101E58006360626895F83F301343636095F84030DB
:101E6800237295F84130637295F842301B09A372CA
:101E780095F843301B02A381A28995F84430134397
:101E8800A38195F845309A0803F00303A273E3731E
:101E980038BD00BF3800002010B54FF4807002F044
:101EA8000FFF88B1284C00234FF4807084F8283045
:101EB80002F008FF0123E36200214CF23A3002F0FD
:101EC800E3FE94F8280010BD022002F0F9FE38B1B4
:101ED80002201D4C02F0F6FE022384F82830EBE7BE
:101EE800082002F0EDFE58B9202002F0E9FE78B192
:101EF8002020154C02F0E6FE062384F82830DBE7A4
:101F08000820114C02F0DEFE042384F82830D3E7C1
:101F1800102002F0D5FE30B94FF4007002F0D0FE68
:101F280048B9094CC8E71020074C02F0CBFE05233E
:101F380084F82830C0E74FF40070034C02F0C2FE6A
:101F4800072384F82830B7E738000020064B1B68C1
:101F580013F0C05F00D17047044B054801224FF0D1
:101F6800C2515A6302F042BA0064024038000020AD
:101F78005864024001284FF0000304D040080133A0
:101F88000128DBB2FAD11846704700BF034A044B58
:101F98001170002201211A7002F0C0B9A4060020B5
:101FA800A307002070B5104D104E00232B7033701E
:101FB8000B78B3B1012200BF531C8C5CDBB21A460C
:101FC800002CF8D133700A4A0A4B1160D9600121FC
:101FD80002F0A4F92B781BB900BF2B78002BFBD09B
:101FE80070BD0123EEE700BFA0060020A307002074
:101FF80060060020A0600240034A04491378581C78
:102008001070C85C704700BF80000020A407002043
:102018002DE9F84F4C4B4D4E4D4DDFF84481DFF81C
:1020280044A14C4F00244FF440224FF4165CC3E9FE
:10203800014219463046C3F800C09C8103F060F89D
:102048003046012103F0DAF822463046402103F0F9
:10205800A7F930460122802103F0A2F9012240F2BB
:102068002551304603F0A6F90126262328462B7071
:102078006C70AC70EE7002F037F8404602F07EF8F3
:10208800354BFF214FF4807C1961404619464FF4C7
:1020980000324FF0006B4FF48069DC605C61C3E98B
:1020A8000744C3E90D44DC62C3F824C09A62C3E95B
:1020B80000BAC3F8189002F0F3F8324640461021EF
:1020C80002F0ACF93146404602F028F9384602F0F1
:1020D80055F8224BDFF89080C3F800B04FF0400E5F
:1020E8004FF4803C194603223846C3E9028EC3F8F0
:1020F80004A0C3E90464C3F81890C3E907445C6208
:10210800C3E90D44DC62C3F828C01A6302F0C8F8BA
:1021180032463846102102F081F92146384602F04D
:10212800FDF8022328461022AB706E70EE702A70FC
:1021380001F0DAFF112328466E70AE70EE702B7036
:10214800BDE8F84F01F0D0BFA408002000440040CB
:10215800B4080020A0600240B808002064060020EF
:102168008860024004440040A406002038B519499C
:10217800194802F073F9012800D038BD174C00E067
:1021880000BF4021204603F031F90028F8D0144B55
:10219800197859B9134B104801221A7002F0BEF889
:1021A8000C490D48BDE8384002F082B90A4C0E4D82
:1021B80001391970E268AB6806490132E2600133FF
:1021C8002046AB6002F074F920460121BDE8384092
:1021D80002F0A4B800802020A06002400044004023
:1021E800A3070020A00600206406002010B50B49B4
:1021F8000B4802F033F9012800D010BD04464FF413
:102208000041084802F098FE2146074802F086F887
:1022180002490348BDE8104002F04AB9008800208E
:1022280088600240000C0240A060024030B402F115
:10223800090468B30D6802F11101681E10F8013F26
:10224800202B29D0052B08BFE52304F8013B8C423D
:10225800F4D12B7A202B0C460CD02E2304F8043B07
:102268000131E81D10F8013F202B1BD001F8013B7C
:10227800A142F7D1EB7A1372EB691360697E2B7E6A
:1022880043EA01239380E97DAB7D43EA0123D380B0
:102298000023237030BC70472B7A2146202B0C4634
:1022A800DBD1E7E70C46E5E72DE9F041C76A8F4245
:1022B80004D003790E4604461BB91EBB0020BDE8B6
:1022C800F08100F13008414601233A464078FEF794
:1022D80063F810BBD4E907321A44BA422071ECD92A
:1022E800E578012D01D8E8E7E36960781F44013DEE
:1022F8003A4601234146EDB2FEF74EF8012DF3D1DF
:10230800002EDBD00123324604F130016078FDF75E
:10231800F3FF10B9E662BDE8F0810120BDE8F08165
:1023280010B504460A46407804F130010123FDF750
:10233800E3FFD0B994F82F1294F82E324AF65522BA
:1023480043EA012393420ED1D4F86630084A23F0B9
:102358007F43934206D0D4F8820020F07F40801A51
:1023680018BF012010BD022010BD032010BD00BF02
:10237800464154002DE9F04704682378303B092B87
:1023880003D865783A2D00F0CB808D4E34680C6008
:10239800002C00F0D080237815467BB16078FDF7DB
:1023A800A3FFC1070AD4002D00F0B78010F0040580
:1023B80000F0B3800A252846BDE8F0870020208079
:1023C800FDF788FFC20700F1B2800DB14307F1D4D1
:1023D80000212046FFF7A4FF0128054600F0998058
:1023E8000027032D00F0AB80002D40F0958094F875
:1023F8003C2094F83B3043EA0223B3F5007F40F0D9
:102408008B8094F8472094F8463053EA022394F8D6
:10241800402008BF636DE361511E0129E2707BD83B
:1024280094F83D10A170002976D0481E084273D157
:1024380094F8420094F841E04EEA002E1EF00F0F87
:10244800A4F808E068D194F8430094F844C094F8DC
:102458003F9050EA0C2C94F83E0008BFD4F850C0C6
:1024680050EA092958D003FB02F209EB1E10104468
:10247800844551D3ACEB000C8C45BCFBF1F84BD335
:1024880040F6F57AD04509EB0701384408F1020C0B
:102498005FD94FF6F579C845C4F818C0A062216223
:1024A80040F28580BEF1000F36D14FEA8C0202F26D
:1024B800FF12E16D6162B3EB522F2DD394F86130B6
:1024C80094F86020C4F80CE042EA03223A444FF042
:1024D800FF33C4E9043284F805E0012304F1300134
:1024E8006078FDF709FF48B994F82F2294F82E3246
:1024F80043EA02234AF65522934245D00322B38881
:10250800227001339BB20022B380E380E262227121
:1025180003E094F8F231A3B90D252846BDE8F08709
:1025280002340460002B3FF430AF0B25F5E7032598
:102538002846BDE8F0870C252846BDE8F087012528
:10254800EBE7D4F8F67120463946FFF7E9FE054671
:1025580047E7C4F818C0A0622162BEF1000FDBD0C3
:102568000A440CEB4C010CF0010C62620CEB510CB0
:1025780001220CF2FF1CB3EB5C2FCDD300234FF0EC
:10258800FF31C4E90331BAE70E4B226B9A42B5D149
:1025980003F1FF5303F50053D4F8142220339A4271
:1025A800ACD1D4E98632C4E903230322A7E7BEF1FC
:1025B800000FB1D00A4462624FEA4C0C0222D8E7FD
:1025C800840000205252614108B54078FDF78CFE26
:1025D80010F0010018BF032008BD00BF70B500212E
:1025E8000546FFF761FE50B92A78032A08D0002271
:1025F80068781146FDF722FF003018BF012070BD32
:102608006A79002AF3D005F130010446E8620B46E6
:1026180005F50C7203F8014B9342FBD12A6909486E
:10262800094E2E634AF65523A5F82E32EB68C5F8F5
:102638001C32C5E9850201236A696878FDF7ACFE9A
:102648006C71D4E77272416152526141F8B50378F6
:10265800022B07460D4606D0032B3AD0012B14D087
:102668004FF0FF30F8BD016A01EB1521FFF71CFEA2
:102678000028F5D16D0005F4FF753D4495F831301B
:1026880095F8300040EA0320F8BD016A05EB5506CD
:1026980001EB5621FFF708FE0028E1D1C6F3080335
:1026A800396A3B44013601EB5621384693F83040ED
:1026B800FFF7FAFD0028D3D1C6F308063E44EB071E
:1026C80096F8300044EA00204CBF0009C0F30B0024
:1026D800F8BD016A01EBD511FFF7E6FD0028BFD16F
:1026E800AD0005F4FE7505F130033B443D44987890
:1026F800D97895F830205B78000440EA01601043EF
:1027080040EA032020F07040F8BD00BF70B50C46C9
:102718008168C480012924D00546006883698B42FA
:102728001FD9B1B90278032A10D003890022A34225
:10273800EA6016D9436A03EB14132B6104F00F0403
:10274800303000EB44106861002070BD416A0029F8
:10275800EBD086783601B44215D3012901D98B42D2
:1027680003D8022070BDA6420DD8FFF76FFFA41B47
:10277800431C0146A4B214D00128F2D92868836901
:102788008B42F0D8EDE7023B8A1E9A42E9603BBFD4
:102798008378816A002302FB031303EB14132B6174
:1027A800CCE7012070BD00BF10B5C1880446FFF713
:1027B800ADFF00B110BD21692068FFF775FD002845
:1027C800F8D16369E5221A70236801221A7110BDD5
:1027D8002DE9F04790F80090B9F1020F04460D4634
:1027E80017460BD0B9F1030F44D0B9F1010F1CD033
:1027F8000226012323713046BDE8F087016A01EB08
:102808001521FFF751FD06460028F2D16D0005F4A9
:10281800FF752544C7F3072385F83130012385F870
:10282800307023713046BDE8F087016A05EB550822
:1028380001EB5821FFF738FD06460028D9D1216A57
:1028480008F1010AEB07C8F3080801EB5A21A04474
:1028580033D598F8303003F00F0343EA071388F8AC
:102868003030204684F80490FFF71EFD00283AD047
:102878000646BEE7016A01EBD511FFF715FD0646CE
:102888000028B6D1AD0005F4FE7505F130012144EC
:102898002544CB781B0603F0704343EA0702130C68
:1028A80085F83020C2F307208B70120E0123487080
:1028B800CA7023713046BDE8F08788F8307020462A
:1028C80084F80490FFF7F0FC0028D1D1CAF3080A75
:1028D800A244C7F303229AF8307027F00F073A434F
:1028E8008AF8302085E7CAF3080AA244C7F307121A
:1028F800F6E700BFF8B505460F4619BBC6688369F9
:1029080066B90126344601349C4228460AD3012E72
:1029180027D9022B14D801242046F8BD9E4228BF8F
:102928000126EFE7012CF6D92146FFF78FFED8B133
:10293800411C25D00128EED0A64212D0AB69E2E7AF
:102948000224F1E70129E6D983699942E3D2FFF726
:102958007DFE01280446DED9AB698342DCD83E46B9
:10296800D0E700242046F8BDAB69A342D3D96FF065
:10297800704221462846FFF72BFF28B10128CAD10B
:102988004FF0FF342046F8BD5FB1012FC3D9AB69C2
:102998009F42C0D2394622462846FFF719FF002831
:1029A800ECD12B69EC605A1CB6D0013B01222B619B
:1029B8006A71B1E72DE9F84FC4880134A4B2002C3C
:1029C8003DD00269002A3AD014F00F0705460E469A
:1029D800006808D000F1300303EB47136B61EC800B
:1029E8000020BDE8F88FE96801322A6121B38378B5
:1029F800013B13EA1418EDD1012923D983699942BF
:102A080020D2FFF723FE012881461BD9B0F1FF3FF2
:102A18005AD0286883694B4516D9A9F10206023BAA
:102A2800B342C5F80C9004D990F80280836A06FB7B
:102A38000838C5F81080CDE70389A342CAD8042016
:102A4800BDE8F88F0220CCE7002EF8D0E968FFF740
:102A580051FF8146002839D00128F3D0B0F1FF3F5B
:102A680032D000212868FFF71FFC834660BB2A6824
:102A7800014602F1300302F50C7203F8011B9A4279
:102A8800FBD1286883698278023BA9F102069E423D
:102A980036BF836A002306FB0233C362C2B14FF01C
:102AA800010A06E02868C36A827801335A45C3627E
:102AB8000FD980F804A00021FFF7F6FB0BF1010BFA
:102AC8005FFA8BFB0028EDD001208AE7072088E712
:102AD8009346A3EB0B02C2628369A0E72DE9F84392
:102AE8000B782F2B0D46044600F0B7805C2B00F0C6
:102AF800B4800026A6602B781F2B40F2B580A16910
:102B0800202601F10B0C01E015F8013F2F2BFBD01B
:102B18005C2BF9D00B4603F8016B9C45FBD10022D6
:102B2800174610464FF0080CEB5D202B07F1010803
:102B38003DD92F2B00F0CA805C2B00F0C7802E2BCC
:102B480000F09C80944540F2968003F17F0E13F0CC
:102B5800800F5FFA8EFE18BF40F00300BEF11E0F13
:102B680007D903F1200E5FFA8EFEBEF11C0F00F2AA
:102B78008F8015F808E0AEF14008B8F13E0F07F174
:102B8800020704D98EF08008B8F17C0F73D80CF1D5
:102B9800FF3842456FD202F101088B5401F808E072
:102BA800EB5D202B02F1020207F10108C1D8454470
:102BB8000423002A5FD00A78E52A04BF05220A7098
:102BC800BCF1080F00F0858000F00302012A08BF5D
:102BD80043F0100300F00C00042808BF43F008037A
:102BE800CB7220460021FFF791FD30B174E000213F
:102BF8002046FFF7DFFE00286ED121692068FFF725
:102C080053FB002868D163691F78002F66D093F8BA
:102C18000BE01EF00800EAD1A169984601F10B0CFF
:102C28000A4601E018F8017F12F8019BB945DED188
:102C38009445F7D1CA7A52071ED41EF0100F51D00E
:102C48005F7D1A7DD87E9B7E42EA072243EA0023F5
:102C580043EA0243A3602B7858E701350026A660B3
:102C68002B781F2B3FF64BAF31462046FFF74EFD22
:102C78006661BDE8F8830620BDE8F883BCF1080F5B
:102C8800F9D180006246C0B247464FF00B0C4BE7C3
:102C9800222BF0D0DFF858E02A27BB42EBD01EF8F1
:102CA800017F002FF9D1A3F14107192F05D840F072
:102CB80002008B544746013236E7A3F16107192F0A
:102CC800F7D8203BDBB240F00100F2E7454400238F
:102CD8006FE78000C0B27DE70428CDD1A369DB7A15
:102CE800590702D40520BDE8F8830420C4E700BFD3
:102CF8004D56000810B50446042012E02068FFF77E
:102D0800D3FA0021A8B962691378204683B1E52B6C
:102D180004D02E2B02D0D37A1B0707D5FFF74AFE23
:102D280038B923691946002BE8D110B9002010BD25
:102D380004200023236110BD38B500210446FFF7A5
:102D4800E5FC50B138BD63691B78E52B20460CD0F3
:102D58005BB1FFF72FFE0028F4D121692068FFF747
:102D6800A3FA01210028EED0ECE721692068FFF7DB
:102D78009BFA0028E6D16269054602F12001134654
:102D880003F8015B8B42FBD1A369013A03F10B0500
:102D980013F8011B02F8011FAB42F9D12368012285
:102DA8001A7138BDF8B505460C460127AB699C4237
:102DB800214628461CD2012C18D9FFF747FC21468A
:102DC80006460022A0B1012E28460FD0731C11D050
:102DD800AB699C420AD2FFF7FBFC40B92B695A1C2D
:102DE80002D001332B616F713446DFE70220F8BD52
:102DF8000020F8BD0120F8BD83690239023B8B42EF
:102E080083BF8378806A01FB03000020704700BFFE
:102E1800012903D982698A4200D917E40120704741
:102E2800012908D910B484698C4201D910BCCFE4B7
:102E3800022010BC70470220704700BF48B9064BFB
:102E48001A6802B1107009B100220A7019600020D6
:102E580070470B20704700BF840000202DE9F04127
:102E68008CB00023036016460191044602F01E024E
:102E780005A901A8FFF77EFA02AB06F01F070B931E
:102E8800002845D016F01C0F3FD004283DD105A8D6
:102E9800FFF752FF47F008070A9DB0BBFDF7D0FACD
:102EA800EA7E95F815C02E7DA97EA873C0F3072386
:102EB80041EA0221EB7346EA0C26030C059A2B74AF
:102EC800000E0023687451EA06464FF00100EB72C9
:102ED8002B776B77AB77EB77AB76EB762B756B75E0
:102EE800107130D0864258D093699E4255D23146EF
:102EF8001046D2F82C80FFF755FF30B90598013EEF
:102F08004146C660FFF7D0F9E0B10CB0BDE8F081EA
:102F1800019905A8FFF7E2FD0A9D0028B2D1002D0E
:102F280037D016F01C0FEB7A06D013F0110F2AD108
:102F380072072AD50820E8E7DA0622D4B60701D5B1
:102F4800D80720D4059A390748BF47F02007D36A25
:102F5800A771C4E90735E87E6E7D297DAB7E41EA1D
:102F6800062143EA002343EA01432361E969D38840
:102F7800A3800020E1602260A060A0610CB0BDE8E1
:102F8800F0810420C1E70720BFE7330786D4059AFC
:102F9800DDE706200CB0BDE8F0810220B5E700BFF0
:102FA8002DE9F04F1E4604460068002385B03360C3
:102FB80030B1037823B11746C388A2889A4204D057
:102FC8000925284605B0BDE8F08F8A46FFF7FCFAC8
:102FD80005460028F5D1A379180600F1A08013F062
:102FE8000103019300F0A680D4E90212A2EB0109C3
:102FF800B94528BFB946B9F1000FE2D004F5097305
:1030080004F1240B0293C1F30803002B4CD1206870
:103018008378013B03EA512313F0FF0361D067690A
:103028008269023F023A974267D28178826A01FB3D
:103038000727002F61D0B9F5007F1F4416D34FEA48
:10304800592803EB08028A4288BFA1EB03085FFAFC
:1030580088F340783A465146FDF74EF9A37900289F
:103068005FD063F07F03019DA371AAE7A269BA420A
:1030780016D0A37940785B060BD501235946FDF796
:103088008BF9A3790028ECD1226823F04003A371BF
:10309800507801233A465946FDF72EF9002858D1B1
:1030A800A368A761C3F30803C3F50078C84503F113
:1030B800240328BFC846234403EB08000AF1FF3263
:1030C80013F8011B02F8011F8342F9D1A168336884
:1030D80041444344B9EB0809A160C244336092D12A
:1030E8006FE739B92769012F07D9791C31D02068D2
:1030F800676195E76169012908D8A379022563F01A
:103108007F032846A37105B0BDE8F08F8269039359
:103118009142F2D2FFF79AFA039B0746E3E70225AA
:103128004FE75A0603D5A369DF1B474504D34FEA87
:103138004828CBE7072544E70AEB472702987B1E78
:1031480004F1240212F8011B03F8011F8242F9D18D
:10315800EDE7A37985E700BF2DE9F04F1E46044649
:103168000068002383B0336030B1037823B1904600
:10317800C388A2889A4204D00927384603B0BDE81C
:10318800F08F0D46FFF720FA07460028F5D1A379FE
:10319800180600F1AE80990740F1B880D4E9022101
:1031A80011EB080F06D3914243F0200338BFE260C9
:1031B800A371E2E7B8F1000FF5D004F124030193FD
:1031C800C2F30803002B56D1216891F8029009F147
:1031D800FF3909EA522919F0FF090CD1002A40F0F9
:1031E8008A802069002800F09380012863D0421C5F
:1031F80027D021686061A3795B0662D463698A6914
:10320800A3F1020B023A934555D28A788B6A02FBE6
:103218000B33002B4FD0B8F5007F09EB030B16D307
:103228004FEA582A09EB0A03934288BFA2EB090A1E
:1032380048785FFA8AF35A462946FDF7ADF8002820
:103248004DD0A37963F07F03A371012795E7A269A5
:10325800A3685A450BD0E2689A4208D94878019980
:1032680001235A46FDF748F80028EAD1A368C4F8B4
:1032780018B0C3F30803C3F5007AC24528BFC24695
:103288002333234405EB0A0115F8012B03F8012F1A
:103298008D42F9D1A37943F04003A371A268336842
:1032A80052445344B8EB0A08A2600D46336087D1F4
:1032B800E168A37977E7A37963F07F03A371022715
:1032C8005BE74878A26901990123FDF765F8A379BE
:1032D8000028B7D123F040032168A3718EE7A369C2
:1032E800A3EB0B0BD34519D34FEA4A2A05EB0A0186
:1032F800D4E7022741E708466169FFF7FBFA00288F
:103308007FF473AFE168A379A2684CE7072734E735
:1033180008464946FFF7EEFA2061F0E705EB4B2334
:1033280003F5007004F1230213F8011B02F8011FD2
:103338008342F9D1A37923F04003A371D4E700BFF6
:1033480038B503682BB11A781AB18188DA889142A6
:1033580001D0092038BD04461846FFF735F9002882
:10336800F8D1A37913F02000F4D05B0620680DD5BE
:103378004078A269012304F12401FDF70DF8002823
:1033880037D1A379206823F04003A371E169FEF7E0
:103398008BFF0028DED1256AEB7A43F02003EB721D
:1033A800E3682B77A3891B0A6B77E389AB77E37B09
:1033B800EB772369AB76238A1B0AEB76638A2B7536
:1033C800638A1B0A6B75FDF73BF8C0F30721020CF3
:1033D800030EA875E9752A766B76A379226823F01F
:1033E80020030121A37111711046BDE83840FFF791
:1033F800F5B8012038BD00BF10B50446FFF7A0FF9F
:1034080000B9206010BD00BF2DE9F04104460068F6
:1034180028B103781BB1A288C3889A4203D0092730
:103428003846BDE8F0810E46FFF7CEF8074600287B
:10343800F6D1A3791D0600F19380E268B24203D267
:1034480013F0020F08BF16460022A368A260002EE0
:10345800E6D0206890F802804FEA4828002B4DD02B
:10346800013B721EB3FBF8F1B2FBF8F28A4245D376
:10347800C8F1000265691340A360F61A002D43D015
:10348800464540F28980206816E0012D7BD9826983
:10349800AA4278D92946FFF7D9F805466A1C6BD0A5
:1034A800012D6FD920688369AB426BD9A368656128
:1034B8004344B045A3600CD2A3799907A6EB08064C
:1034C800E3D52946FFF716FA05460028E6D1A36892
:1034D80046463344C6F30802A360002A5AD021683E
:1034E8008A69A81E023A90424CD28D788A6A00FBFB
:1034F8000525002D46D005EB562506E02569002D4B
:1035080030D06561002DBBD1A368C3F30802002A3F
:103518003ED0A269AA423BD02646A37956F8241B7E
:103528005B0648780AD501233146FCF735FFA379B5
:1035380018BB226823F04003A37150783146012359
:103548002A46FCF7D9FEB8B9D4E90232A5619342FC
:103558007FF666AFA279E36042F02003A3715FE7CC
:1035680002275DE72946FFF7C5F90128054609D076
:10357800013001D02561C4E7A37963F07F03A3710B
:1035880001274DE7A37963F07F03A371022747E77B
:10359800E268DCE71546B8E7A3689AE710B586B095
:1035A800044601910022014601A8FEF7E3FE08B196
:1035B80006B010BD03ABA36101992046FFF78EFA50
:1035C800B0B963696BB1DA7AD20613D5587D1A7D22
:1035D800D97E9B7E42EA002243EA012343EA024362
:1035E800A3602368DB88A38020460021FFF78EF8BC
:1035F8000428DDD1052006B010BD00BF70B50368F2
:1036080084B02BB11A781AB18488DA88944203D02E
:103618000925284604B070BD044618460E46FEF734
:10362800D3FF05460028F4D1C6B101ABA3612046FB
:10363800FFF760FB042817D070B92069324604F1FF
:103648001401FEF7F3FD00212046FFF7B3F9042823
:1036580002D100232361DCE70546DAE7014620466C
:10366800FFF754F80546D4E725612846E6E700BF8A
:1036780030B58DB00D460190002205A901A8FEF7CE
:1036880079FE044610B120460DB030BD02AB05A846
:1036980001990B93FFF722FA04460028F3D10A9BFD
:1036A8003BB109982A460AA9FEF7C0FD20460DB08D
:1036B80030BD0624E7E700BF2DE9F04782B0164683
:1036C800019088460022314601A8FEF753FE0746BE
:1036D80040B9326894691169A01E8142134605D821
:1036E800C8F80010384602B0BDE8F08792F800A08C
:1036F800BAF1010F23D0156A3B463946B94600296D
:1037080041D0BAF1020F93F801C0187833D0186885
:1037180030F0704008BF09F1010904330439013C55
:10372800EDD1BAF1030F08BF0123C2F8109008BF0A
:1037380053713846C8F8009002B0BDE8F0870225FA
:10374800B946AC422946184605F1010527D9FEF7C6
:103758007DFF431C28D0012829D008B909F10109A7
:1037680032689469AC42134602D9012DE9D8022780
:10377800C2F81090DDE750EA0C2008BF09F10109F2
:1037880002330239CBE710462946FEF78DFD013595
:10379800326838B902F130034FF40071B1E71A46C4
:1037A8000227E5E70746BCE732680127E0E7326809
:1037B8000227DDE7036870B52BB11A781AB1818842
:1037C800DA88914202D00925284670BD0446184679
:1037D800FEF7FAFE05460028F6D1A37919064BD460
:1037E8009A074BD5D4E902219142EDD943F0200341
:1037F800A371E260206872B92169012940D9826900
:10380800914240D2FFF7CEFA002323610028DBD093
:103818000546A37928E06169012924D98269914282
:1038280021D2FEF713FF431C064622D001282ED0D2
:1038380020688369B342C7D96169012927D98B42B6
:1038480025D96FF07042FEF7C3FF0028E0D1012EA2
:103858001DD9206883699E4219D23146FFF7A2FA22
:103868000028D5D1B0E7022563F07F03A37128466D
:1038780070BDA3790125F7E70225A5E70725A3E78A
:1038880025610225F0E7002222610225ECE7A379F1
:103898000225E9E730B595B006A90190012201A8F3
:1038A800FEF768FD08B115B030BD03AB01990C9364
:1038B80006A8FFF713F90028F5D10B9B002B43D07E
:1038C800D97ACA0701D50720EDE7D87E9D7E5C7DB1
:1038D8001A7D45EA002542EA042345EA0345CB065A
:1038E80028D5012D34D90DF1330306AC0DA914F8F0
:1038F800012B03F8012F8C42F9D1022120460F95A4
:10390800FEF704FF0028CED12046FFF7F3F9002880
:10391800D9D00428C7D106A8FEF746FF0028C2D18F
:10392800069883699D4213D22946FFF73BFA00287F
:10393800B9D105E006A8FEF737FF0028B3D12DB9A5
:103948000698FEF74BFEAEE70620ACE7012DE7D15F
:103958000220A8E72DE9F04F95B00990FCF770FD1B
:103968000DA90646012209A8FEF704FD044618B170
:10397800204615B0BDE8F08F0AAB054609991393A8
:103988000DA8FFF7ABF80446002800F0B380042820
:10399800EED129460D98FEF7ADFF8046002800F0CD
:1039A800AE80012800F0D780B8F1FF3F0D9800F0F5
:1039B800DB802946FEF778FC0446002840F0C280E8
:1039C8000D998B69A8F10202023B9A423CBF8878A4
:1039D8008B6A01F1300734BF02FB003222463B46B6
:1039E80001F50C75002003F8010B9D42FBD101F194
:1039F8003B0C3B46202003F8010B9C45FBD14FEACA
:103A0800184AC6F3072C5FFA8AF307934FEA1A207D
:103A1800F3B2CDF808C0C6F3074C360E08900496EA
:103A2800079ECDF80CC001935FFA88FC81F84460CA
:103A3800089ECDF814C0019B81F84560C8F3072C97
:103A4800049ECDF818C081F8463081F84960029B81
:103A5800059E81F847302E20039B81F84A604FF07D
:103A6800100E069E81F8483081F84B6081F83000CE
:103A780081F83BE001F1500301F1700601E013F811
:103A8800200C03F8010B9E42F9D12E230D9881F8E2
:103A9800513003780F9E032B5FD0330C5FFA83FC01
:103AA800F4B21B0AC6F3072681F86A4081F86B60F6
:103AB80081F864C081F86530867816B3013EF6B2A5
:103AC800013616444FF001094FF0000B9246C0F83A
:103AD8002CA080F8049000210AF1010AFEF7E4FB0B
:103AE80078BB3B4603F801BB9D42FBD1564508D045
:103AF8000D98ECE70824204615B0BDE8F08F0724A0
:103B080036E70DA8FFF718F90446D8B9129B039CAD
:103B18001C76049C5C76059C01999C76069C0D9A03
:103B28009975DC760299079CD9751C751020089C3C
:103B38005C750121D87210461171FEF74FFD0446DD
:103B480016E704460D9883699845BFF411AF4146BE
:103B5800FFF728F90CE702240AE7436AB3429CD12D
:103B680000239C461E469FE7012401E730B58DB02F
:103B78000D460190144605A9012201A8FEF7FAFB9B
:103B880008B10DB030BD02AB05A801990B93FEF743
:103B9800A5FF0028F5D10A9A72B1D37A05995D403C
:103BA8002C4004F027045C400123D47208460B71B2
:103BB800FEF714FD0DB030BD0620E2E710B58CB05D
:103BC8000C460190012205A901A8FEF7D3FB08B114
:103BD8000CB010BD02AB05A801990B93FEF77EFF50
:103BE8000028F5D10A9B8BB1E2889A75E28805997D
:103BF800120ADA75A2881A76A2880124120A5A765D
:103C080008460C71FEF7EAFC0CB010BD0620DFE791
:103C180030B59BB00D46019001220CA901A8FEF712
:103C2800A9FB08B11BB030BD0C9B1393019903ABE2
:103C38000CA81293FEF752FF0028F3D1119A002A1C
:103C480046D00B320DF117030BA812F8011B03F82D
:103C5800011F8342F9D10DF14B030CAC13A914F8E1
:103C6800012B03F8012F8C42F9D129462046FEF793
:103C780035FF58B30428D5D12046FFF75DF8002852
:103C8800D0D1189C0DF11A0304F10C020DF12D008E
:103C980013F8011B02F8011F8342F9D19DF818306F
:103CA8000C9A43F020030121E37211710E9A159BBF
:103CB8009A4202D0E37ADB060CD40CA8FEF774FD16
:103CC8000028AFD10C98FEF789FCABE70820A9E7DC
:103CD8000420A7E7E27E657D217DA37E139843EA51
:103CE800022341EA0521826943EA0143023B023A81
:103CF800934224D28178826A03FB0121F9B1FEF74D
:103D0800D3FA00288ED1139B93F851202E2AD4D1B0
:103D18001978159A032903D1596A914208BF0022DC
:103D2800110CC2F307200C0A83F86A20012283F8D9
:103D3800641083F8654083F86B001A71BDE70220B0
:103D480070E700BF30B50B4C83B00546012154F82D
:103D5800200000F057FD04EB4504074B228A53F876
:103D68002500064B00926946019301F05FF803B005
:103D780030BD00BF8C55000814000020010200016E
:103D8800044B054A03EB400352F820201B8A138397
:103D9800704700BF8C55000814000020044B054AEA
:103DA80003EB400352F820201B8A5383704700BF5F
:103DB8008C55000814000020054A064B52F82020B4
:103DC80003EB400351691B8A4B405361704700BFA6
:103DD800140000208C55000830B50D46012187B02D
:103DE8000446084600F00EFD01214FF4804000F023
:103DF80039FD134800EB84000123002400698DF885
:103E08000C4002A98DF80F40029301F00FF8012D24
:103E180001D007B030BD2146204601F0BFF84FF46D
:103E2800006304A8ADF8143004958DF8165000F01E
:103E3800E9FD044B019301A800F056F907B030BD25
:103E480014000020060F0F0108B5044B03EB800097
:103E58000121006901F050F808BD00BF14000020DE
:103E680030B5002083B0234C234D00F059FE0020CC
:103E780000F05CFE00F026FE00214FF4006000F028
:103E8800F1FC20460022082101F05AF820460022C1
:103E9800092101F055F8204600220A2101F050F8C6
:103EA800204600220B2101F04BF8204600220C216D
:103EB80001F046F828460022022101F041F84FF4AB
:103EC800706200232046694600928DF804308DF810
:103ED800073000F0ABFF284669460423009300F042
:103EE800A5FF4FF4805369462046009300F09EFFDB
:103EF80003B030BD00080240000C024070B5294CE8
:103F0800294D82B001210C2000F07CFC20460C22B7
:103F1800082101F015F820460C22092101F010F8BB
:103F280020460C220A2101F00BF820460C220B2116
:103F380001F006F80C222046114601F001F8284647
:103F48000C22022100F0FCFF184B4FF4706220464F
:103F58006946CDE90023042600F068FF2846694633
:103F6800009600F063FF694620464FF48053012510
:103F7800009300F05BFF0023694620468DF804306B
:103F880000968DF8075000F051FF29464FF4006065
:103F980000F068FC29464FF4800000F033FC02B0C2
:103FA80070BD00BF00080240000C02400202000180
:103FB80070B5224C224D90B006464FF0FA5120467B
:103FC80000F014FA2046002100F0A8F9204600F07D
:103FD800D5F84FF000610023019140224FF4806131
:103FE80002950492CDE905330A9307914FF4805561
:103FF8004FF480424FF4403304212046089509923B
:104008000B934FF400024FF400130C9103256944FD
:104018000F93CDE90D52039600F042F90122204694
:10402800102100F0FBF92046202100F08BF92046F2
:10403800012100F073F910B070BD00BF5864024050
:10404800802C014070B5214C90B006464FF0FA51D3
:10405800204600F0CBF92046002100F05FF9204609
:1040680000F08CF84FF000650023194A01954FF4D1
:1040780080610292CDE9043306930A9307914FF4C5
:1040880080554FF480424FF4403304212046089570
:1040980009920B934FF400024FF400130C9103257F
:1040A80069440F93CDE90D52039600F0F9F8012207
:1040B8002046102100F0B2F92046202100F042F9F4
:1040C8002046012100F02AF910B070BD5864024062
:1040D800802C014040F0BF60024B40F40030D860B3
:1040E800704700BF00ED00E070B40278C378012487
:1040F80002F01F0104FA01F15509ABB14478807848
:104108000C4E430143EAC413A40124F07F040001C8
:10411800234300F0200032440343DBB282F800332B
:1041280046F8251070BC70472035024B43F825101F
:1041380070BC704700E100E021F0604121F07F0190
:10414800014B01439960704700ED00E0044A136990
:1041580011B103431361704723EA000313617047E9
:1041680000ED00E0044A136804280CBF43F0040380
:1041780023F004031360704710E000E0026834493C
:10418800002310B422F00102212488420260036057
:1041980043608360C3600361446137D02D4B98420C
:1041A8002ED02D4B98423AD02C4B98423DD02C4BD8
:1041B800984230D02B4B98423DD02B4B984242D05E
:1041C8002A4B984217D02A4B984238D0294B98420C
:1041D80016D0294B984222D0284B984225D0284BFC
:1041E800984218D0274B984225D0274B98422AD07E
:1041F800264B984208D14FF03D5243F8AC2C03E0CF
:104208004FF4746243F8202C10BC7047204B10BC4C
:104218003D229A6070471F4A43F8642CF4E74FF434
:10422800741243F8382C10BC70474FF0746243F88E
:10423800502C10BC7047184A43F87C2CE4E73D2208
:1042480043F8082CE0E7154A43F8942CDCE700BF54
:1042580010600240286002404060024058600240FE
:104268007060024088600240A0600240B86002406E
:1042780010640240286402404064024058640240CE
:104288007064024088640240A0640240B86402403E
:10429800006002403D000020400F002000003D204B
:1042A8000B6870B4D1E90524CD682B431343D1E9D9
:1042B800072523431343D1E909422B43D1E90D656F
:1042C8002343134304680B4A334322402B431343CD
:1042D8000360D1E90B3442690D6922F007022343D8
:1042E8001343D1E90142436145608460C26070BCF8
:1042F800704700BF3F801CF00023C0E90033C0E9CD
:104308000233C0E90433C0E90633C0E90833C0E921
:104318000A33C0E90C338363704700BF036819B1DF
:1043280043F001030360704723F001030360704703
:10433800036819B143F400430360704723F4004352
:1043480003607047036819B143F0200303607047A6
:1043580023F020030360704741607047406880B2D3
:10436800704700BF036822B143F400230360016172
:10437800704723F40023036001617047036819B193
:1043880043F480230360704723F48023036070475D
:104398000AB101617047C160704700BF0068C0F38F
:1043A800C0407047006800F001007047406900F0A5
:1043B8003800704710B40A4B0A4C0B4AA04294BF0D
:1043C800184610468B004CBF4068006810BC084077
:1043D80020F0F02020F08210003018BF0120704734
:1043E800006002400F6402400064024030B4084B91
:1043F800084D094C21F0F022A84294BF18462046E7
:1044080022F082128B004CBFC260826030BC7047C1
:10441800006002400F640240006402400B060CD5A5
:104428004369AAB143F08003802943610FD0036830
:1044380001F01E01194301607047802907D0002A46
:10444800F5D1036801F01E0123EA010101607047FC
:1044580023F0800380294361F3D1704730B4114BB6
:10446800114D124A21F0F02424F0C314A84298BF39
:104478001A469CB1006800EAD12000F01E038800AB
:104488004CBF50681068084020F0F02020F08210DF
:1044980010B1181C18BF012030BC7047436903F0E5
:1044A8008003ECE7006002400F64024000640240B1
:1044B800FFF79CBF0F4B10481A68002142F0010219
:1044C80030B41A6099601A680C4D0D4C22F0A8524D
:1044D80022F410221A605D60C3F88440C3F8880093
:1044E8001A6822F480221A6030BCD960C3F88C1094
:1044F800704700BF0038024000300024103000240C
:1045080000300020024B00221A701870704700BF5C
:104518000238024082B000230A4A0193136813F458
:10452800003F019B03F101030193019B05D0054B5B
:104538001868C0F3404002B07047B3F5A04FEDD102
:10454800F5E700BF00380240034A136823F0F80378
:1045580043EAC0001060704700380240014B186001
:10456800704700BF00004742064B002201281A701E
:104578001A7005D0042802D105221A7070477047B6
:104588001870704770380240014B1860704700BFC0
:10459800800E474230B4029C064D40EA04605B0836
:1045A8000843013B40EA821040EA0340686030BC9F
:1045B800704700BF00380240014B1860704700BFC9
:1045C800600047420907034B41EA8011C3F8841091
:1045D800704700BF00380240014B1860704700BFA9
:1045E80068004742120742EA0162034B42EA80121E
:1045F800C3F88820704700BF00380240014B18609C
:10460800704700BF70004742014B1860704700BFF9
:104618004C004742034A936823F0EC631943014373
:104628009160704700380240034A936823F078434A
:10463800194301439160704700380240034A936868
:1046480023F0030318439060704700BF003802400E
:10465800024B986800F00C00704700BF0038024019
:10466800034A936823F0F00318439060704700BF33
:1046780000380240034A936823F4E05318439060DB
:10468800704700BF00380240034A936823F4604330
:1046980043EAC00090607047003802401E4A9368A1
:1046A80003F00C03042B10B41AD0082B1BD01B4B9F
:1046B8000360194A1A499468C4F303140C5DE34073
:1046C80043609468C4F382240C5D23FA04F4846084
:1046D800926810BCC2F342328A5CD340C360704710
:1046E800104B0360E5E75468516852686302C2F3EF
:1046F800881201F03F014CBF0A4B084BB3FBF1F3A2
:1047080003FB02F3044A5268C2F301420132520029
:10471800B3FBF2F30360CCE7003802400024F40056
:104728002800002000127A0000F44073B3F5407F9F
:1047380009D108498A6820F0704322F4F81223F45A
:10474800407313438B60034B1A6FC0F30B00104385
:104758001867704700380240014B1860704700BF67
:104768003C0E4742014B1860704700BF400E47425D
:10477800014B1860704700BF5C014742044AD2F8F9
:104788008C30013823F01F031843C2F88C0070479F
:1047980000380240054AD2F88C30013823F4F85327
:1047A80043EA0023C2F88C30704700BF003802404B
:1047B800044AD2F88C3023F440131843C2F88C0012
:1047C800704700BF00380240044AD2F88C3023F406
:1047D80040031843C2F88C00704700BF00380240FD
:1047E800044AD2F88C3023F440331843C2F88C00C2
:1047F800704700BF00380240014B1860704700BF87
:10480800E0114742044A136B11B103431363704725
:1048180023EA00031363704700380240044A536BCD
:1048280011B103435363704723EA0003536370478E
:1048380000380240044A936B11B1034393637047F5
:1048480023EA00039363704700380240044A136C5C
:1048580011B103431364704723EA000313647047DC
:1048680000380240044A536C11B103435364704743
:1048780023EA00035364704700380240044A13696E
:1048880011B103431361704723EA000313617047B2
:1048980000380240044A536911B103435361704719
:1048A80023EA00035361704700380240044A9369C1
:1048B80011B103439361704723EA00039361704782
:1048C80000380240044A136A11B103431362704767
:1048D80023EA00031362704700380240044A536A0F
:1048E80011B103435362704723EA000353627047D0
:1048F80000380240044A136D11B103431365704731
:1049080023EA00031365704700380240044A536DD8
:1049180011B103435365704723EA00035365704799
:1049280000380240044A936D11B103439365704700
:1049380023EA00039365704700380240044A136E67
:1049480011B103431366704723EA000313667047E7
:1049580000380240044A536E11B10343536670474E
:1049680023EA00035366704700380240044A13786C
:1049780011B103431370704723EA000313707047A3
:104988000D3802404309012B0BD0022B094B0CBFF9
:104998001B6F5B6F00F01F0023FA00F000F00100AE
:1049A8007047044B1B6800F01F0023FA00F000F06A
:1049B8000100704700380240024A536F43F0807389
:1049C8005367704700380240034BDB68184214BF36
:1049D80001200020704700BF00380240014B1870CA
:1049E800704700BF0E380240044B054900221A6088
:1049F8005A609A60DA605961704700BF003C014014
:104A0800FFFF7F000379827970B4056803F1804362
:104A180003F59E33EC43F2B1154A417916682640F6
:104A280016605668344054601C6825431D60006851
:104A38009468C3431C409460D468102903EA0403B3
:104A4800D3600DD001F1804303F59E3370BC1A6822
:104A58001043186070471A6814401C6070BC704797
:104A6800936803439360D3681843D06070BC704761
:104A7800003C014000234FF4406282800360837150
:104A8800704700BF024A136918431061704700BF9E
:104A9800003C0140034B5B69034214BF0120002026
:104AA800704700BF003C0140014B5861704700BF90
:104AB800003C0140FFF7EEBF014B5861704700BF53
:104AC800003C014008B501214FF40060FFF706FFE4
:104AD80000214FF40060BDE80840FFF7FFBE00BFAB
:104AE8000A4970B44A68C6680568D0E9014322F4E7
:104AF800FD4222F07F02234313430469027D3343BE
:104B08002B43234313434B6070BC7047002C014078
:104B180000230375C0E90033C0E90233036170471D
:104B2800014B1860704700BFA0802542014B1860F8
:104B3800704700BF002C0140024B186800F00300CA
:104B4800704700BF002C01400949036830B48B60EE
:104B5800D0E90135CA68D0E9034022F4FF622B434B
:104B680022F00702134323430343CB6030BC704752
:104B7800002C01400023C0E90033C0E9023303617F
:104B8800704700BF014B1869C0B27047002C014044
:104B9800044B82B00344002201920193019B1868E0
:104BA80002B07047142C0140094A036830B45362BC
:104BB80043689362D0E90235D16AD0E904402B43B7
:104BC80021F0F7010B4323430343D36230BC704702
:104BD800002C014000234FF0FF32C0E90023C0E958
:104BE8000233C0E904337047014B186B704700BFAC
:104BF800002C0140014BD3F880007047002C014085
:104C0800014BC3F880007047002C0140014B986CA1
:104C1800704700BF002C0140014B1860704700BF6F
:104C2800A0852542014B1860704700BFA485254226
:104C3800014B1860704700BFA8852542014B1860DA
:104C4800704700BFAC852542014B1860704700BF14
:104C5800AC812542014B1860704700BFB0812542E6
:104C6800C043024B00F0010018607047B481254230
:104C7800014B1860704700BFB8812542014B18608E
:104C8800704700BF8C852542044AD36B11B103439A
:104C9800D363704723EA0003D3637047002C0140B5
:104CA800034B5B6B034214BF01200020704700BF19
:104CB800002C0140014B9863704700BF002C014055
:104CC800FFF7EEBF014B9863704700BF002C01400F
:104CD80008B54B4B984228D04A4B98422FD04A4BA4
:104CE800984236D0494B984215D0494B98423AD011
:104CF800484B984241D0484B984248D0474B98423D
:104D08005BD0474B98424CD0464B98425FD0464BBD
:104D1800984268D008BD01210820FFF7AFFD0021A7
:104D28000820BDE80840FFF7A9BD01210846FFF7A4
:104D3800A5FD00210120BDE80840FFF79FBD012126
:104D48000220FFF79BFD00210220BDE80840FFF785
:104D580095BD01210420FFF791FD00210420BDE845
:104D68000840FFF78BBD01211020FFF787FD0021C8
:104D78001020BDE80840FFF781BD01212020FFF782
:104D88007DFD00212020BDE80840FFF777BD012107
:104D98004020FFF773FD00214020BDE80840FFF7E1
:104DA8006DBD01214FF48070FFF768FD00214FF4BD
:104DB8008070BDE80840FFF761BD01218020FFF742
:104DC8005DFD00218020BDE80840FFF757BD0121A7
:104DD8004FF40070FFF752FD00214FF40070BDE85A
:104DE8000840FFF74BBD01214FF48060FFF746FDF7
:104DF80000214FF48060BDE80840FFF73FBD00BFC9
:104E0800000002400004024000080240000C02407A
:104E1800001002400014024000180240001C02402A
:104E28000020024000240240002802402DE9F047FB
:104E3800D1F800C0002301274FF0030E02E0013330
:104E4800102B3FD007FA03F232EA0C04F7D15C00CA
:104E5800D0F800800E790EFA04F5ED4308EA05084B
:104E6800C0F80080D0F800A006FA04F9013E49EA2B
:104E78000A09012E0EFA04F8C0F8009016D8D0F8E6
:104E880008904E7905EA09058560D0F808908D7973
:104E9800A64046EA09068660466826EA020242609B
:104EA800466805FA03F292B232434260C568CA798D
:104EB80025EA0805C560C568A24001332A43102BBE
:104EC800C260BFD1BDE8F0874FF6FF720023C0E98A
:104ED8000023704782B04FF480330193019B0B434A
:104EE8000193019BC361C161019BC361C3690193C4
:104EF800C369019302B070470369194214BF0120C6
:104F080000207047006980B2704700BF43691942AA
:104F180014BF012000207047406980B2704700BF6D
:104F280001837047418370470AB101837047418309
:104F3800704700BF416170474369594041617047FC
:104F4800CB0800EB830001F0070110B4036A890065
:104F58000F248C4023EA04030362036A10BC02FA9C
:104F680001F119430162704708B501214FF48040EF
:104F7800FFF7B4FC00214FF48040BDE80840FFF77C
:104F8800ADBC00BF014B1860704700BF003801403E
:104F9800014B1860704700BF2000274201F0FC0356
:104FA80003F1804303F59C3301F0030110B49A68C0
:104FB80089000F248C4022EA04029A609A6810BC87
:104FC80000FA01F111439960704700BF014B186066
:104FD800704700BFDC002742014B1860704700BFD4
:104FE80000042742024B186AC0F30020704700BF34
:104FF8000038014008B53A4B984221D0394B9842C5
:1050080028D0394B984231D0384B98420CD0384B85
:10501800984237D0374B984240D0374B984247D0C8
:10502800364B984250D008BD01214FF40020FFF7BD
:1050380049FC00214FF40020BDE80840FFF742BCBE
:1050480001211020FFF74AFC00211020BDE808408C
:10505800FFF744BC01214FF40030FFF733FC002177
:105068004FF40030BDE80840FFF72CBC01214FF495
:105078008020FFF727FC00214FF48020BDE808407E
:10508800FFF720BC01214FF48010FFF71BFC002123
:105098004FF48010BDE80840FFF714BC0121202020
:1050A800FFF71CFC00212020BDE80840FFF716BCD4
:1050B80001214FF08040FFF705FC00214FF08040B0
:1050C800BDE80840FFF7FEBB01214FF00040FFF7A5
:1050D800F9FB00214FF00040BDE80840FFF7F2BBA4
:1050E800001001400044004000480040004C0040CF
:1050F800005000400014014000780040007C00404F
:10510800028AF0B592B20446C8880D4622F440528D
:1051180002438989AB882F892282A6896889244A13
:105128003B43324003431343A381A38A9BB223F436
:1051380040730B4385B0A3826846FFF7AFFA1D4B57
:105148009C4205D003F580639C4201D0029A00E09E
:10515800039AA3892868184D190402EB820202EB0E
:1051680082024CBF40008000B2FBF0F0A289A5FB90
:10517800003149096423120403FB11034FEA0111AA
:105188000AD41B013233A5FB0323C3F343130B4398
:105198009BB2238105B0F0BDDA003232A5FB0232A2
:1051A800C2F3421242EA01039BB2238105B0F0BD6B
:1051B800F3E9FFFF001001401F85EB5100234FF476
:1051C80016514FF440220160C0E9013283817047D3
:1051D80030B40B884D888C88028AC9882B432343B6
:1051E80092B20B4322F470621343038230BC7047BF
:1051F8000023038043808380C3807047838919B16B
:1052080043F400538381704723F400531B041B0CA1
:1052180083817047038B03F47F430383038B194314
:1052280001837047838919B143F400438381704730
:10523800C3F30E0383817047838A19B143F4006373
:105248008382704723F400631B041B0C838270471E
:10525800C1F30801044B81801A88510603D400BFAA
:105268001A885206FBD57047004400400B7893B16A
:10527800094A02E011F8013F63B19BB29380138899
:105288005806F7D400BF13885B06FBD511F8013F19
:10529800002BF2D170477047004400408088C0F36B
:1052A80008007047038A23F00F031B041B0C0382BA
:1052B800038A194301827047838919B143F00203B5
:1052C8008381704723F002031B041B0C8381704702
:1052D800838923F400631B041B0C8381838919438E
:1052E80081817047038A23F020031B041B0C03826F
:1052F800038A194301827047038A19B143F4804332
:105308000382704723F480431B041B0C03827047FD
:10531800838943F001038381704700BF838A19B1F1
:1053280043F008038382704723F008031B041B0C17
:1053380083827047038BDBB20383038B43EA01212B
:1053480001837047838A19B143F020038382704731
:1053580023F020031B041B0C83827047838A19B136
:1053680043F010038382704723F010031B041B0CC7
:1053780083827047838A23F004031B041B0C8382F7
:10538800838A194381827047838A19B143F00203E3
:105398008382704723F002031B041B0C838270472F
:1053A800838A12B119438182704723EA01018182FD
:1053B800704700BF10B401F01F04C1F3421101236C
:1053C800012903FA04F30FD002290CBF103014305E
:1053D80022B1026810BC134303607047026810BC16
:1053E80022EA0303036070470C30F1E7038819428F
:1053F80014BF012000207047C94389B2018070475B
:10540800C1F3421210B4012301F01F04012A03FA68
:1054180004F314D0022A0CBF028A828A134002883D
:1054280092B24BB10123090A03FA01F10A4214BFEF
:105438001846002010BC7047184610BC7047828977
:105448001340ECE7090A012303FA01F1C94389B2C1
:1054580001807047014B1860704700BF0030004062
:10546800014B5860704700BF00300040014B986006
:10547800704700BF00300040024B4AF6AA221A606B
:10548800704700BF00300040024B4CF6CC421A6017
:10549800704700BF00300040034BDB68184214BF60
:1054A80001200020704700BF0030004008B50122ED
:1054B8004FF400412048FFF737FD42F21074FAF725
:1054C8005FFEFAF7DDFFFCF7A3FD42F2107300BFA1
:1054D800013BFCD1013CF8D118491948194DFCF79A
:1054E80061FD20461849FDF7A9FC2870D0B9174975
:1054F8001748FFF7BBFE0A2216491748FDF7AEFC0E
:1055080064222870642300BF013BFCD1013AF9D121
:105518002B7863B90E481149FFF7A8FE0E48FDF72E
:105528006BFFFEE70E490A48FFF7A0FEDFE70D49CB
:105538000748FFF79BFEEDE7000C0240BC5500084A
:10554800A0600240B805002084030020F055000840
:105558000044004010560008280100203856000872
:10556800D05500081C5600080A44914200F1FF3348
:1055780000D1704710B511F8014B03F8014F914263
:10558800F9D110BD08000000080000000800000064
:105598000800000000100020004000800600000005
:1055A80000000000000000000100000001000000F1
:1055B800010000006E677579656E206875796E6800
:1055C800207461690A0D0000636F756C64206E6F4A
:1055D80074206F70656E2066696C65737973746585
:1055E8006D200A0D0000000043726561746520613A
:1055F800206E65772066696C65202868656C6C6F1D
:105608002E747874290A0D0048454C4C4F2E545876
:10561800540000004372656174652061206E6577EF
:105628002066696C65206572726F720A0D00000051
:10563800436C6F7365207468652066696C650A0D34
:1056480000000000222A2B2C3A3B3C3D3E3F5B5D8C
:045658007C7F000053
:10565C000000000000000000010203040607080916
:10566C00007A030A000C0240000C0240000C0240BD
:10567C00000C024000000240000000000102030484
:08568C000102030406070809EE
:040000050800063DAC
:00000001FF
