:020000040800F2
:10000000000002208D010008A5020008A9020008D6
:10001000890100088901000889010008000000002A
:10002000000000000000000000000000890100083E
:10003000890100080000000089010008890100080A
:100040008901000889010008890100088901000868
:100050008901000889010008890100088901000858
:100060008901000889010008890100088901000848
:100070008901000889010008890100088901000838
:100080008901000889010008890100088901000828
:100090008901000889010008890100088901000818
:1000A0008901000889010008890100088901000808
:1000B00089010008890100088901000889010008F8
:1000C00089010008890100088901000889010008E8
:1000D00089010008890100088901000889010008D8
:1000E00089010008890100088901000889010008C8
:1000F00089010008890100088901000889010008B8
:1001000089010008890100088901000889010008A7
:100110008901000889010008890100088901000897
:100120008901000889010008890100088901000887
:100130008901000889010008890100088901000877
:100140008901000889010008890100088901000867
:100150008901000889010008890100088901000857
:100160008901000889010008890100088901000847
:100170008901000889010008890100088901000837
:08018000890100088901000853
:10018800FEE700BF684620F007018D4601B5104B19
:100198001048984207D2C2431A4422F0030204329C
:1001A8000D4900F001FA0D480D4B984207D2C243A1
:1001B8001A4422F003020432002100F000FA00F091
:1001C80071F800F05FF8BDE801408546704700BF50
:1001D8000000002000000020D805000800000020D2
:1001E8000000002070B5012186B00820012400F02D
:1001F800A7F900254FF40053022602A91F480293CD
:100208008DF80C408DF80E508DF80F508DF80D605C
:1002180000F0C6F82146204600F092F921464FF436
:10022800804000F09BF902A9154802948DF80C5003
:100238008DF80E508DF80D608DF80F6000F0B0F855
:100248002946284600F098F9082304A88DF81530A7
:1002580004948DF814508DF8164000F029F90623FF
:1002680001A88DF805408DF806408DF807408DF8F7
:10027800043000F0EBF806B070BD00BF000C02407F
:100288000000024008B5FFF7ADFF4FF400510248E7
:1002980000F0DAF8FEE700BF000C0240704700BF2C
:1002A800FEE700BF3849394BD1F88820384842F476
:1002B8007002C1F888201A68002142F001021A6011
:1002C80099601A6822F0847222F480321A605860A9
:1002D8001A6882B022F480221A60D96000910191D4
:1002E8001A6842F480321A601A4603E0009BB3F59C
:1002F800A04F09D0136803F400330193009B013326
:100308000093019B002BF1D0204B1B6813F40033A2
:1003180018BF01230193019B012B05D01A4B4FF005
:1003280000629A6002B07047184B1A491A6C1A4852
:1003380042F080521A640A6842F440420A609A689D
:100348009A609A689A609A6842F480529A605860F3
:100358001A6842F080721A601A4611680B4B8901BC
:10036800FBD50E4A40F2057111609A6822F003022B
:100378009A609A6842F002029A601A46936803F0FB
:100388000C03082BFAD1C9E700ED00E00038024061
:10039800103000240070004008324004003C024045
:1003A8000022F0B513460126032704E00133102B81
:1003B80002F102022FD00D6806FA03F434EA0505AB
:1003C800F4D1D0F800E007FA02F5ED430EEA050E85
:1003D800C0F800E091F804E0D0F800C00EFA02FE80
:1003E8004EEA0C0EC0F800E091F804E00EF1FF3E72
:1003F800BEF1010F07FA02FC0ED9C46824EA0C0406
:10040800C460CC79C568944001332C43102BC46078
:1004180002F10202CFD1F0BDD0F808E005EA0E05DE
:10042800856091F805E085680EFA02FE4EEA05053A
:100438008560456825EA040444608C7945689C40D9
:10044800A4B22C434460D8E701837047C3785BB9F2
:10045800037816485A09203203F01F03012101FAD4
:1004680003F340F82230704770B4467883780278F6
:100478000E4DB401590124F07F0441EAC6111B0155
:10048800214303F0200302F160420B4302F561426D
:10049800DBB282F800330378012203F01F015B0905
:1004A8008A4045F8232070BC704700BF00E100E097
:1004B8008379002B2CD010B4204B01681A6822EAEB
:1004C80001021A605A68016822EA01025A60027938
:1004D800016802F1804202F59E32146821431160DE
:1004E8009A68016822EA01029A60DA68016822EAD9
:1004F8000102DA604279102A15D002F1804303F52F
:100508009E33026819680A431A605DF8044B704705
:100518000379016803F1804303F59E331A6822EAE0
:1005280001021A607047996802680A439A60026873
:10053800D9680A43DA605DF8044B7047003C014013
:1005480029B9054A136B23EA000010637047024B70
:100558001A6B1043186370470038024029B9054ADE
:10056800536C23EA000050647047024B5A6C1043E6
:10057800586470470038024010B401F0FC0303F1DE
:10058800804303F59C3301F003019C6889000F2226
:100598008A4024EA02029A609A6888401043986068
:1005A8005DF8044B704700BF10B5431E0A449142E2
:1005B80004D011F8014B03F8014FF8E710BD0244CD
:1005C8000346934202D003F8011BFAE77047000084
:040000050800018D61
:00000001FF
