:020000040800F2
:1000000000000220B1060008D5020008D90200084D
:10001000DD020008E1020008E5020008000000001F
:10002000000000000000000000000000E9020008DD
:10003000ED02000800000000F1020008F5020008CF
:10004000AD060008AD060008AD060008AD060008C4
:10005000AD060008AD060008F9050008AD06000869
:10006000AD060008AD060008AD060008AD060008A4
:10007000AD060008AD060008AD060008AD06000894
:100080003505000875050008AD060008AD06000836
:10009000AD060008AD060008AD060008AD06000874
:1000A000AD060008AD060008AD060008AD06000864
:1000B000AD060008AD060008AD060008AD06000854
:1000C000AD060008AD060008AD060008AD06000844
:1000D000AD060008AD06000839060008AD060008A8
:1000E000AD060008AD060008AD060008AD06000824
:1000F000AD060008AD060008AD060008AD06000814
:10010000AD060008AD060008AD060008AD06000803
:10011000AD060008AD060008AD060008AD060008F3
:10012000AD060008AD060008AD060008AD060008E3
:10013000AD060008AD060008AD060008AD060008D3
:10014000AD060008AD060008AD060008AD060008C3
:10015000AD060008AD060008AD060008AD060008B3
:10016000AD060008AD060008AD060008AD060008A3
:10017000AD060008AD060008AD060008AD06000893
:08018000AD060008AD06000801
:10018800324B33481A68002142F001021A60996024
:100198001A6822F0847222F480321A6058601A6851
:1001A80082B022F480221A60D960009101911A6805
:1001B80042F480321A6003E0009AB2F5A04F09D0E9
:1001C8001A6802F400320192009A01320092019AF0
:1001D800002AF1D01D4B1B6813F4003318BF01230C
:1001E8000193019B012B05D01A4B4FF000629A60D6
:1001F80002B07047154B18491A6C184842F08052E3
:100208001A640A6842F440420A609A689A609A68D6
:100218009A609A689A6058601A6842F080721A6008
:100228001A689201FCD50E4A084940F20570106020
:100238009A6822F003029A609A6842F002029A6071
:100248008B6803F00C03082BFAD1CDE70038024085
:100258001030002400ED00E0007000400832400437
:10026800003C0240154A936803F00C03042B0BD0A2
:10027800082B0BD0124B114A12499268C2F3031291
:100288008A5CD3400B6170470F4BF4E750685168A4
:1002980052684302C2F3881201F03F014CBF0A4B77
:1002A800074BB3FBF1F303FB02F3044A5268C2F3B2
:1002B800014201325200B3FBF2F3DCE7003802409E
:1002C8000024F4000000002000127A00704700BFEC
:1002D800FEE700BFFEE700BFFEE700BFFEE700BF86
:1002E800704700BF704700BF704700BF704700BF2E
:1002F800002240B10346013B00BF002BFBD1013275
:100308009042F7D1704770472DE9F047012198B026
:10031800082000F099FD4FF4704240F2013301A922
:100328007548764CDFF8F8A1754E764FDFF8F48102
:10033800CDE9012300F096FF0121084600F084FD75
:1003480001214FF4003000F0A3FD01214FF400100B
:1003580000F07AFD01214FF48040012500F0A4FD52
:100368004FF004094FF0022301A92046CDE90153BB
:1003780000F078FF0DEB09012046CDE9019A00F065
:1003880071FF20460722022100F0F6FF0DEB09015C
:1003980008232046CDE9013A00F064FF20460722F1
:1003A8000321002400F0E8FF4FF440234FF4E1322A
:1003B800304605A90793CDE90524ADF8204001F0A2
:1003C800BBF82946304601F035F92246304640212F
:1003D80001F002FA2A463046802101F0FDF92A464A
:1003E800304640F2255101F001FA474B0093684628
:1003F80000F09CF92146204600F0ECFF4FF4006322
:1004080003A8ADF8103003958DF8125000F01CFECB
:100418003E4B0093684600F089F945F2555001F0CB
:1004280035FA484601F038FA40F6FF7001F03AFA1A
:10043800384600F0C5F9364B0B931F214FF40033B3
:100448004FF0006A38464FF480694FF480720D917E
:1004580009A9CDE912230C940E94CDE91044CDE9F5
:1004680016441494CDE909A8CDF83C9006F5073652
:1004780000F038FA2A463846102100F0F1FAA03682
:100488002946384600F06CFA304600F099F9214BBD
:10049800DFF894E0C3F800A04FF0400C194603229F
:1004A80030464FF48037C3E902ECC3F80480C3E94F
:1004B8000454C3F81890C3E907445C62C3E90D44C7
:1004C800DC629F621A6300F00DFA2A46304610215A
:1004D80000F0C6FA2146304600F042FA68460E4B54
:1004E800009300F023F90D4B0093684600F01EF9C5
:1004F80018B0BDE8F08700BF000C024000000240C1
:100508000044004088600240260000010601010105
:100518008C0000205000002010010201110101018F
:1005280002020002044400401400002010B50B49E8
:100538000B4800F0B5FA012800D010BD04464FF46E
:100548000041084800F014FF2146074800F008FA67
:1005580002490348BDE8104000F0CCBA00880020EA
:1005680088600240000C0240A060024038B51A4979
:100578001A4800F095FA012800D038BD184C00E060
:1005880000BF4021204601F04DF90028F8D0154C55
:10059800154AA368934213D0104D144801334FF401
:1005A8000051A36000F0E4FEA368EB6028460A4906
:1005B80000F0A0FA28460121BDE8384000F0D0B983
:1005C800203B05490548A36000F094FA0021034840
:1005D800BDE8384000F0C4B900802020A060024087
:1005E800004400405000002033000020000C02406E
:1005F80008B5012000F080FD00B908BD4FF40041A6
:10060800084800F0B5FE0121074800F0A9F907489D
:100618000122802101F0E0F80120BDE8084000F047
:100628006DBD00BF000C0240A060024000440040C5
:1006380008B52021194801F0F5F8012807D040F243
:100648002661164801F0F8F801281BD008BD0246BB
:100658004021124801F0C0F84FF48041104800F0E2
:1006680087FE002240210D4801F0B6F840F22551DE
:100678000A4801F003F940F22661084801F0DCF865
:100688000128E3D14FF40041054800F071FE40F223
:1006980026610248BDE8084001F0F0B80044004077
:1006A800000C0240FEE700BF684620F007018D46B7
:1006B800144A15498A4201B50CD20139891A21F028
:1006C8000301124B0431194453F8040B42F8040B8C
:1006D8008B42F9D10E4B0F4A93420AD2013AD21AF1
:1006E80022F0030204321A44002143F8041B934207
:1006F800FBD1FFF745FD01F0F5F8BDE8014085465F
:10070800704700BF00000020500000205419000866
:1007180050000020B000002040F0BF60024B40F4C1
:100728000030D860704700BF00ED00E070B4027878
:10073800C378012402F01F0104FA01F15509ABB195
:10074800447880780C4E430143EAC413A40124F092
:100758007F040001234300F0200032440343DBB24E
:1007680082F8003346F8251070BC70472035024BDC
:1007780043F8251070BC704700E100E021F06041AB
:1007880021F07F01014B01439960704700ED00E0C3
:10079800044A136911B103431361704723EA000344
:1007A8001361704700ED00E0044A136804280CBF89
:1007B80043F0040323F004031360704710E000E0E3
:1007C80002683449002310B422F00102212488422F
:1007D8000260036043608360C3600361446137D093
:1007E8002D4B98422ED02D4B98423AD02C4B984204
:1007F8003DD02C4B984230D02B4B98423DD02B4BC0
:10080800984242D02A4B984217D02A4B984238D067
:10081800294B984216D0294B984222D0284B98420F
:1008280025D0284B984218D0274B984225D0274BE3
:1008380098422AD0264B984208D14FF03D5243F8AF
:10084800AC2C03E04FF4746243F8202C10BC7047C2
:10085800204B10BC3D229A6070471F4A43F8642C15
:10086800F4E74FF4741243F8382C10BC70474FF07B
:10087800746243F8502C10BC7047184A43F87C2C1B
:10088800E4E73D2243F8082CE0E7154A43F8942CA6
:10089800DCE700BF10600240286002404060024070
:1008A800586002407060024088600240A0600240C8
:1008B800B86002401064024028640240406402406C
:1008C800586402407064024088640240A064024098
:1008D800B8640240006002403D000020400F002044
:1008E80000003D200B6870B4D1E90524CD682B4386
:1008F8001343D1E9072523431343D1E909422B4385
:10090800D1E90D652343134304680B4A334322405E
:100918002B4313430360D1E90B3442690D6922F07C
:10092800070223431343D1E90142436145608460D0
:10093800C26070BC704700BF3F801CF00023C0E954
:100948000033C0E90233C0E90433C0E90633C0E923
:100958000833C0E90A33C0E90C338363704700BF2A
:10096800036819B143F001030360704723F00103E2
:1009780003607047036819B143F40043036070478C
:1009880023F4004303607047036819B143F0200360
:100998000360704723F0200303607047416070478D
:1009A800406880B2704700BF036822B143F4002357
:1009B80003600161704723F40023036001617047FD
:1009C800036819B143F480230360704723F480233C
:1009D800036070470AB101617047C160704700BF8A
:1009E8000068C0F3C0407047006800F0010070471D
:1009F800406900F03800704710B40A4B0A4C0B4AA3
:100A0800A04294BF184610468B004CBF406800684F
:100A180010BC084020F0F02020F08210003018BFF1
:100A280001207047006002400F64024000640240E9
:100A380030B4084B084D094C21F0F022A84294BF6D
:100A48001846204622F082128B004CBFC26082609A
:100A580030BC7047006002400F64024000640240EE
:100A68000B060CD54369AAB143F080038029436182
:100A78000FD0036801F01E011943016070478029F7
:100A880007D0002AF5D1036801F01E0123EA01010D
:100A98000160704723F0800380294361F3D17047D8
:100AA80030B4114B114D124A21F0F02424F0C31434
:100AB800A84298BF1A469CB1006800EAD12000F00D
:100AC8001E0388004CBF50681068084020F0F020D2
:100AD80020F0821010B1181C18BF012030BC7047DC
:100AE800436903F08003ECE7006002400F640240B2
:100AF80000640240FFF79CBF0F4B10481A680021A2
:100B080042F0010230B41A6099601A680C4D0D4C1D
:100B180022F0A85222F410221A605D60C3F88440C3
:100B2800C3F888001A6822F480221A6030BCD960A1
:100B3800C3F88C10704700BF003802400030002412
:100B48001030002400300020024B00221A70187068
:100B5800704700BF0238024082B000230A4A01935E
:100B6800136813F4003F019B03F101030193019BF8
:100B780005D0054B1868C0F3404002B07047B3F584
:100B8800A04FEDD1F5E700BF00380240034A1368D3
:100B980023F0F80343EAC0001060704700380240B1
:100BA800014B1860704700BF00004742064B002207
:100BB80001281A701A7005D0042802D105221A706B
:100BC800704770471870704770380240014B1860C2
:100BD800704700BF800E474230B4029C064D40EA81
:100BE80004605B080843013B40EA821040EA034086
:100BF800686030BC704700BF00380240014B186085
:100C0800704700BF600047420907034B41EA801163
:100C1800C3F88410704700BF00380240014B1860C9
:100C2800704700BF68004742120742EA0162034B5F
:100C380042EA8012C3F88820704700BF003802409B
:100C4800014B1860704700BF70004742014B1860A5
:100C5800704700BF4C004742034A936823F0EC6397
:100C6800194301439160704700380240034A936872
:100C780023F07843194301439160704700380240DC
:100C8800034A936823F0030318439060704700BF3A
:100C980000380240024B986800F00C00704700BF13
:100CA80000380240034A936823F0F0031843906029
:100CB800704700BF00380240034A936823F4E053AA
:100CC80018439060704700BF00380240034A936899
:100CD80023F4604343EAC000906070470038024044
:100CE8001E4A936803F00C03042B10B41AD0082B87
:100CF8001BD01B4B0360194A1A499468C4F30314A8
:100D08000C5DE34043609468C4F382240C5D23FACD
:100D180004F48460926810BCC2F342328A5CD34007
:100D2800C3607047104B0360E5E754685168526828
:100D38006302C2F3881201F03F014CBF0A4B084B13
:100D4800B3FBF1F303FB02F3044A5268C2F3014216
:100D580001325200B3FBF2F30360CCE700380240E3
:100D68000024F4004000002000127A0000F44073D0
:100D7800B3F5407F09D108498A6820F0704322F40E
:100D8800F81223F4407313438B60034B1A6FC0F3BC
:100D98000B0010431867704700380240014B186079
:100DA800704700BF3C0E4742014B1860704700BFB8
:100DB800400E4742014B1860704700BF5C01474234
:100DC800044AD2F88C30013823F01F031843C2F8C4
:100DD8008C00704700380240054AD2F88C30013840
:100DE80023F4F85343EA0023C2F88C30704700BF5D
:100DF80000380240044AD2F88C3023F440131843D8
:100E0800C2F88C00704700BF00380240044AD2F88C
:100E18008C3023F440031843C2F88C00704700BF9D
:100E280000380240044AD2F88C3023F44033184387
:100E3800C2F88C00704700BF00380240014B1860B0
:100E4800704700BFE0114742044A136B11B10343D6
:100E58001363704723EA00031363704700380240A6
:100E6800044A536B11B103435363704723EA0003E9
:100E78005363704700380240044A936B11B103432F
:100E88009363704723EA0003936370470038024076
:100E9800044A136C11B103431364704723EA000337
:100EA8001364704700380240044A536C11B103437D
:100EB8005364704723EA00035364704700380240C4
:100EC800044A136911B103431361704723EA00030D
:100ED8001361704700380240044A536911B1034353
:100EE8005361704723EA000353617047003802409A
:100EF800044A936911B103439361704723EA0003DD
:100F08009361704700380240044A136A11B10343E1
:100F18001362704723EA00031362704700380240E7
:100F2800044A536A11B103435362704723EA00032A
:100F38005362704700380240044A136D11B10343ED
:100F48001365704723EA00031365704700380240B1
:100F5800044A536D11B103435365704723EA0003F4
:100F68005365704700380240044A936D11B103433A
:100F78009365704723EA0003936570470038024081
:100F8800044A136E11B103431366704723EA000342
:100F98001366704700380240044A536E11B1034388
:100FA8005366704723EA00035366704700380240CF
:100FB800044A137811B103431370704723EA0003FE
:100FC800137070470D3802404309012B0BD0022BD8
:100FD800094B0CBF1B6F5B6F00F01F0023FA00F07A
:100FE80000F001007047044B1B6800F01F0023FA53
:100FF80000F000F00100704700380240024A536FC9
:1010080043F080735367704700380240034BDB6836
:10101800184214BF01200020704700BF003802406A
:10102800014B1870704700BF0E380240044B054949
:1010380000221A605A609A60DA605961704700BFEE
:10104800003C0140FFFF7F000379827970B4056896
:1010580003F1804303F59E33EC43F2B1154A41791D
:101068001668264016605668344054601C6825434C
:101078001D6000689468C3431C409460D4681029BC
:1010880003EA0403D3600DD001F1804303F59E33D6
:1010980070BC1A681043186070471A6814401C60C6
:1010A80070BC7047936803439360D3681843D0605B
:1010B80070BC7047003C014000234FF440628280BE
:1010C80003608371704700BF024A136918431061B7
:1010D800704700BF003C0140034B5B69034214BFEB
:1010E80001200020704700BF003C0140014B5861BF
:1010F800704700BF003C0140FFF7EEBF014B58614D
:10110800704700BF003C014008B54B4B984228D0BF
:101118004A4B98422FD04A4B984236D0494B984276
:1011280015D0494B98423AD0484B984241D0484B49
:10113800984248D0474B98425BD0474B98424CD096
:10114800464B98425FD0464B984268D008BD012173
:101158000820FFF7B5FE00210820BDE80840FFF78A
:10116800AFBE01210846FFF7ABFE00210120BDE814
:101178000840FFF7A5BE01210220FFF7A1FE0021CC
:101188000220BDE80840FFF79BBE01210420FFF7BD
:1011980097FE00210420BDE80840FFF791BE012119
:1011A8001020FFF78DFE00211020BDE80840FFF752
:1011B80087BE01212020FFF783FE00212020BDE803
:1011C8000840FFF77DBE01214020FFF779FE00218E
:1011D8004020BDE80840FFF773BE01214FF480703E
:1011E800FFF76EFE00214FF48070BDE80840FFF75E
:1011F80067BE01218020FFF763FE00218020BDE843
:101208000840FFF75DBE01214FF40070FFF758FE5C
:1012180000214FF40070BDE80840FFF751BE0121DE
:101228004FF48060FFF74CFE00214FF48060BDE86A
:101238000840FFF745BE00BF00000240000402401E
:1012480000080240000C0240001002400014024056
:1012580000180240001C0240002002400024024006
:10126800002802402DE9F047D1F800C000230127EB
:101278004FF0030E02E00133102B3FD007FA03F2C0
:1012880032EA0C04F7D15C00D0F800800E790EFA2F
:1012980004F5ED4308EA0508C0F80080D0F800A07E
:1012A80006FA04F9013E49EA0A09012E0EFA04F881
:1012B800C0F8009016D8D0F808904E7905EA0905CC
:1012C8008560D0F808908D79A64046EA09068660C0
:1012D800466826EA02024260466805FA03F292B2BC
:1012E80032434260C568CA7925EA0805C560C56801
:1012F800A24001332A43102BC260BFD1BDE8F0875A
:101308004FF6FF720023C0E90023704782B04FF404
:1013180080330193019B0B430193019BC361C1611E
:10132800019BC361C3690193C369019302B070470C
:101338000369194214BF012000207047006980B278
:10134800704700BF4369194214BF0120002070474D
:10135800406980B2704700BF01837047418370477E
:101368000AB1018370474183704700BF41617047EC
:101378004369594041617047CB0800EB830001F095
:10138800070110B4036A89000F248C4023EA040380
:101398000362036A10BC02FA01F119430162704743
:1013A80008B501214FF48040FFF7BAFD00214FF442
:1013B8008040BDE80840FFF7B3BD00BF014B18608F
:1013C800704700BF00380140014B1860704700BFEC
:1013D8002000274201F0FC0303F1804303F59C330E
:1013E80001F0030110B49A6889000F248C4022EAA6
:1013F80004029A609A6810BC00FA01F111439960DE
:10140800704700BF014B1860704700BFDC002742DF
:10141800014B1860704700BF00042742024B186A4E
:10142800C0F30020704700BF0038014008B53A4BB0
:10143800984221D0394B984228D0394B984231D024
:10144800384B98420CD0384B984237D0374B98429B
:1014580040D0374B984247D0364B984250D008BDC1
:1014680001214FF40020FFF74FFD00214FF4002029
:10147800BDE80840FFF748BD01211020FFF750FDE7
:1014880000211020BDE80840FFF74ABD01214FF4B4
:101498000030FFF739FD00214FF40030BDE8084067
:1014A800FFF732BD01214FF48020FFF72DFD002109
:1014B8004FF48020BDE80840FFF726BD01214FF416
:1014C8008010FFF721FD00214FF48010BDE808408F
:1014D800FFF71ABD01212020FFF722FD002120205F
:1014E800BDE80840FFF71CBD01214FF08040FFF721
:1014F8000BFD00214FF08040BDE80840FFF704BD18
:1015080001214FF00040FFF7FFFC00214FF00040A1
:10151800BDE80840FFF7F8BC001001400044004057
:1015280000480040004C00400050004000140140BA
:1015380000780040007C0040028AF0B592B2044670
:10154800C8880D4622F4405202438989AB882F8906
:101558002282A6896889244A3B43324003431343C5
:10156800A381A38A9BB223F440730B4385B0A38263
:101578006846FFF7B5FB1D4B9C4205D003F5806319
:101588009C4201D0029A00E0039AA3892868184D6A
:10159800190402EB820202EB82024CBF4000800079
:1015A800B2FBF0F0A289A5FB0031490964231204BB
:1015B80003FB11034FEA01110AD41B013233A5FBC7
:1015C8000323C3F343130B439BB2238105B0F0BD40
:1015D800DA003232A5FB0232C2F3421242EA0103B8
:1015E8009BB2238105B0F0BDF3E9FFFF0010014075
:1015F8001F85EB5100234FF416514FF44022016030
:10160800C0E901328381704730B40B884D888C88DB
:10161800028AC9882B43234392B20B4322F4706297
:101628001343038230BC70470023038043808380C8
:10163800C3807047838919B143F40053838170478D
:1016480023F400531B041B0C83817047038B03F4A2
:101658007F430383038B194301837047838919B13F
:1016680043F4004383817047C3F30E0383817047BB
:10167800838A19B143F400638382704723F40063BB
:101688001B041B0C83827047C1F30801044B818043
:101698001A88510603D400BF1A885206FBD5704732
:1016A800004400400B7893B1094A02E011F8013F69
:1016B80063B19BB2938013885806F7D400BF138890
:1016C8005B06FBD511F8013F002BF2D1704770473C
:1016D800004400408088C0F308007047038A23F064
:1016E8000F031B041B0C0382038A194301827047F2
:1016F800838919B143F002038381704723F0020301
:101708001B041B0C83817047838923F400631B042B
:101718001B0C83818389194381817047038A23F0D5
:1017280020031B041B0C0382038A194301827047A0
:10173800038A19B143F480430382704723F480433A
:101748001B041B0C03827047838943F001038381C8
:10175800704700BF838A19B143F00803838270473A
:1017680023F008031B041B0C83827047038BDBB236
:101778000383038B43EA012101837047838A19B1EC
:1017880043F020038382704723F020031B041B0CC3
:1017980083827047838A19B143F0100383827047AC
:1017A80023F010031B041B0C83827047838A23F0E9
:1017B80004031B041B0C8382838A194381827047AC
:1017C800838A19B143F002038382704723F002032E
:1017D8001B041B0C83827047838A12B119438182D0
:1017E800704723EA01018182704700BF10B401F0FD
:1017F8001F04C1F342110123012903FA04F30FD096
:1018080002290CBF1030143022B1026810BC1343F7
:1018180003607047026810BC22EA03030360704744
:101828000C30F1E70388194214BF012000207047EB
:10183800C94389B201807047C1F3421210B4012331
:1018480001F01F04012A03FA04F314D0022A0CBF82
:10185800028A828A1340028892B24BB10123090A94
:1018680003FA01F10A4214BF1846002010BC704761
:10187800184610BC704782891340ECE7090A012317
:1018880003FA01F1C94389B201807047014B18601E
:10189800704700BF00300040014B5860704700BFE0
:1018A80000300040014B9860704700BF0030004096
:1018B800024B4AF6AA221A60704700BF0030004067
:1018C800024B4CF6CC421A60704700BF0030004013
:1018D800034BDB68184214BF01200020704700BF8B
:1018E80000300040174808B501224FF40041044673
:1018F800FFF736FDFEF744FCFEF706FD124B1B6AA8
:1019080061229A8000224FF480512046FFF728FD7B
:101918004FF4FA624FF4FA6300BF013BFCD1013A7D
:10192800F8D101224FF480512046FFF719FD4FF4FA
:10193800FA624FF4FA6300BF013BFCD1013AF8D1D7
:0C194800E0E700BF000C0240140000208B
:10195400000000000000000001020304060708095B
:1019640000E1F5056E6761792032362D322D31396B
:10197400393920676961207472692063616D20625E
:1019840069656E000044004000000608070000007E
:101994000000000001020304010203040607080911
:04000005080006B138
:00000001FF
